:020000040800F2
:10000000501B0020DD010008DD1F0008851E0008D0
:10001000D91F0008C1050008C9250008000000001C
:10002000000000000000000000000000C5210008E2
:10003000E9060008000000000D200008F921000872
:10004000F7010008F7010008F7010008F7010008B0
:10005000F7010008F7010008F7010008F7010008A0
:10006000F7010008F7010008F7010008F701000890
:10007000F7010008F7010008F7010008F701000880
:10008000F7010008F7010008F7010008F701000870
:10009000F7010008F7010008F7010008F701000860
:1000A000F7010008F7010008F7010008F701000850
:1000B000F7010008F7010008F7010008F701000840
:1000C000F7010008F7010008F70100088120000887
:1000D000F701000891250008F7010008F701000862
:1000E000F7010008F7010008F7010008F701000810
:1000F000F7010008F7010008F7010008F701000800
:10010000F7010008F7010008F7010008F7010008EF
:10011000F7010008F7010008F7010008F7010008DF
:10012000F7010008F7010008F7010008F7010008CF
:1001300000F002F800F043F80AA090E8000C8244B6
:100140008344AAF10107DA4501D100F038F8AFF293
:10015000090EBAE80F0013F0010F18BFFB1A43F0A5
:1001600001031847242A0000442A0000103A24BF43
:1001700078C878C1FAD8520724BF30C830C144BF0C
:1001800004680C607047000000230024002500264E
:10019000103A28BF78C1FBD8520728BF30C148BFEA
:1001A0000B6070471FB500F087F9040000200021A4
:1001B00002F0A0FC401C60601FBD10B510BD00F037
:1001C00056F91146FFF7EEFF02F0A2FA00F086F9A9
:1001D00003B4FFF7F2FF03BC00F0CAF909488047F7
:1001E00009480047FEE7FEE7FEE7FEE7FEE7FEE719
:1001F000FEE7FEE7FEE7FEE704480549054A064B31
:1002000070470000912200083101000850150020BD
:10021000501B0020501700205017002070B50646D4
:1002200000F08EF80468054630460A22002100F0EE
:100230008BF82C6070BD30B505460B462A4613F886
:10024000014B12F8010B08B1A042F8D01CB10028F4
:1002500002D06D1CF1E7284630BD10B5431C02E00A
:1002600010F8011B71B18107FAD14FF0013202C8B9
:100270008C1A8C4314EAC211F9D0C01A0A0603D0B2
:10028000C01E10BDC01A10BD0A0401D0801E10BDD2
:100290000902FCD0401E10BD02F0FF0343EA032216
:1002A00042EA024200F002B84FF000020429C0F016
:1002B000128010F0030C00F01B80CCF1040CBCF198
:1002C000020F18BF00F8012BA8BF20F8022BA1EBEA
:1002D0000C0100F00DB85FEAC17C24BF00F8012BCF
:1002E00000F8012B48BF00F8012B70474FF00002C7
:1002F00000B5134694469646203922BFA0E80C501C
:10030000A0E80C50B1F12001BFF4F7AF090728BFF6
:10031000A0E80C5048BF0CC05DF804EB890028BF72
:1003200040F8042B08BF704748BF20F8022B11F09B
:10033000804F18BF00F8012B704770477047704717
:1003400000487047100000202DE9F04791460F4605
:1003500080460446002614F8015B2DB100F030F809
:100360000068405DC007F6D12B2D02D02D2D18D08E
:10037000641E4A463946204600F02AF827B13968FB
:10038000A14201D1C7F800804FF0020471050BD5DE
:100390004042002803DDFFF7D3FF0460A007BDE85B
:1003A000F08746F48066E4E70028F8DAFFF7C8FF34
:1003B00004606FF00040F2E7004870471000002032
:1003C00010B500F079F8001D10BD00BF292700000E
:1003D0002DE9F05F824615468B4600270AF101049D
:1003E000B9460078302801D09DB113E014F8010B14
:1003F0000127782803D0582801D045B10AE00DB173
:10040000102D07D1002714F8010B102502E0082554
:1004100000E00A250026B0460EE005FB080005FBBB
:1004200006F101271FFA80F801EB1046B6F5803F70
:1004300000D3B94614F8010B294600F041F8002812
:10044000EBDABBF1000F05D00FB1641E00E054469B
:10045000CBF80040B9F1000F06D0FFF771FF022181
:100460000160C81EBDE8F09F48EA0640FAE77546FD
:10047000FFF7A2FFAE4605006946534620F007008D
:10048000854618B020B5FFF7B7FEBDE820404FF015
:1004900000064FF000074FF000084FF0000BAC468D
:1004A000ACE8C009ACE8C009ACE8C009ACE8C009D8
:1004B00021F007018D46704700487047300000204A
:1004C0003A2800D2303820F02002412A01D3A2F18C
:1004D0003700884201D34FF0FF30704710B5044613
:1004E000AFF300802046BDE81040FFF771BE00006A
:1004F0004FF0013C50F8042B51F8043B9A4221D1B3
:10050000A2EB0C03934313EACC1317D150F8042B3E
:1005100051F8043B9A4215D1A2EB0C03934313EA22
:10052000CC130BD150F8042B51F8043B9A4209D15B
:10053000A2EB0C03934313EACC13DBD04FF0000083
:10054000704700BFD01A01BAB1FA81F101F0180169
:1005500022FA01F0CB40DBB2C0B2C01AC1F12001D7
:100560002CFA01F3D11A914311EAC311E6D1704775
:1005700001491820ABBEFEE72600020070470000CC
:10058000B0B540F6A464C2F20004208861888842B5
:1005900008BFB0BD40F27005C2F20005204601F070
:1005A0004DFD21886288B4F8E035914203F10101E4
:1005B000A4F8E01505EB03018870EFD1B0BD000091
:1005C000FEE700002DE9F04184B00DF106000021A6
:1005D0000A2202F0E3F840F27008C2F2000808F1C3
:1005E000020437A12046FFF726FE98B10DF106055B
:1005F000204629462822292301F052FE2846FFF7EB
:100600000DFE08F216552946642200F055F92846D9
:1006100002F006F92CA12046FFF70DFED0B348F2F8
:100620000000C0F6000002F00BF898BB322000F08A
:10063000EDFA0DF1060120462822292301F030FEB3
:1006400098F82A0A08B30DF10600FFF7E7FD054602
:10065000002708F2165600BF284631464FF4806244
:1006600000F02AF90A2000F0D1FA284631464FF46A
:10067000807202F015F80A2000F0C8FA98F82A0AE9
:100680000137874205F58065E6D311A002F0C8F86E
:1006900001F0F8FF12A12046FFF7CDFD60B10DF18A
:1006A0000605204629462822292301F0F9FD28467F
:1006B000FFF7B4FD00F0DAF8012004B0BDE8F081E6
:1006C000524144440000000055504441544500004C
:1006D0000D55706461746520586F6E6720210D00A0
:1006E00045524153450000007047000010B54FF4DB
:1006F000E04400BF204600F0B9F8322000F086FA4E
:1007000004F58054B4F5704FF4D110BDEFF31080B0
:1007100072B600BFFEE7000041F22850C2F20000AE
:100720000021C16142F21000C4F20200016841F0F0
:1007300004010160016841F0400101607047000060
:1007400041F22851C2F200010022CA6142F21001B6
:10075000C4F202010A6842F002020A6048600868B6
:1007600040F040000860704741F22852C2F2000297
:100770000023D36142F21002C4F20202136843F074
:10078000010313600180704742F20C00C4F20200C2
:100790000168C90641F22851C2F2000101D40022C9
:1007A00004E0CA6942F00202CA61102203685B07D2
:1007B00005D5CB6942F0040243F00103CB61036924
:1007C000DB0707D0CB6943F00403CB61016921F05B
:1007D0000101016102607047F0B581B042F20C0680
:1007E0000446C4F2020600F0F7FB3168C90715D1D0
:1007F0003068800644BF202030603068C00608D4CE
:100800003069C00705D13068400702D4002001B02C
:10081000F0BDFFF7B9FF012001B0F0BD0546671C30
:1008200004D044B9032001B0F0BD00BF3068C00758
:10083000DED0002FFAD000F0CFFB401BA042F5D94C
:10084000F0E7000010B540F60004C4F201042046B1
:100850001021002200F0BAFB062001F033FC2046F4
:100860001021012200F0B2FB10BD0000B0B505461A
:10087000FFF7E8FF40F60004C4F20104204610210F
:10088000002200F0A3FB202001F01CFCC5F3074070
:1008900001F018FCC5F3072001F014FCE8B201F0E8
:1008A00011FC20461021012200F090FB012000F0F5
:1008B000ADF900F037F8B0BDF0B581B040F60004F6
:1008C000C4F2010415460E460746204610210022B8
:1008D00000F07CFB032001F0F5FB8DF80300C7F36B
:1008E000074001F0EFFB8DF80300C7F3072001F08C
:1008F000E9FB8DF80300F8B201F0E4FB8DF803008A
:1009000045B1013E0020013D01F0DCFB290406F861
:10091000010FF7D120461021012200F057FB01B052
:10092000F0BD0000B0B540F600040120C4F201049F
:1009300000F06CF920461021002200F047FB052052
:1009400001F0C0FB4FF07045013504D2002001F0EA
:10095000B9FBC007F8D120461021012200F036FB78
:10096000B0BD00002DE9F0410C46C9B215460A445D
:10097000B2F5807F804609D8204641462A4600F0DD
:1009800037F8012000F042F9BDE8F081C1F5807729
:10099000204641463A4600F02BF8012000F036F997
:1009A000E81B00EB10610E1221F0FF013C4408EB44
:1009B00007053204A0EB010718BF002E10D000BFBE
:1009C000204629464FF48072013E00F011F80120C4
:1009D00005F5807504F5807400F018F93004EFD146
:1009E000BAB22046294600F003F8BDE8F0810000C5
:1009F000F0B581B040F6000415460E460746C4F235
:100A00000104FFF71FFF20461021002200F0DEFA4C
:100A1000022001F057FBC7F3074001F053FBC7F377
:100A2000072001F04FFBF8B201F04CFB3DB1013E55
:100A300016F8010F013D01F045FB2804F8D12046CE
:100A40001021012200F0C2FA01B0F0BD014690F879
:100A50002100022813D10868D1E90FC3026822F0EF
:100A60000E020260026822F001020260012000FA18
:100A700003F2CCF8042081F82100002002E00420D9
:100A800088630120002281F82020704780B590F80B
:100A90002110022927D1026840F2444C1368C4F2A5
:100AA000020C23F00E0313601368ACF571718A42D7
:100AB00023F0010111601AD940F20841C4F2020189
:100AC0008A424DD040F21C41C4F202018A424BD00E
:100AD00040F23041C4F202018A4249D14FF480739E
:100AE0004CF8403C78E004218163012080BD6B21FB
:100AF000C4F202018A424FF0010316DC2F21C4F236
:100B000002018A423DDD3021C4F202018A4224D032
:100B10004421C4F202018A424CD05821C4F202019D
:100B20008A424DD14FF4803350E040F20741C4F285
:100B300002018A4231DD40F20841C4F202018A42D8
:100B400044D040F21C41C4F202018A4223D040F258
:100B50003041C4F202018A4232D14FF4807335E051
:100B600001234CF8403C37E010234CF8403C33E084
:100B70004FF48033624508BF4FF480534CF8403C3B
:100B80002AE00821C4F202018A421FD01C21C4F2CB
:100B900002018A4214D1102318E06C21C4F2020130
:100BA0008A420AD08021C4F202018A4208D14FF061
:100BB00080730BE04FF4805308E04FF4801305E09E
:100BC0004FF48033624508BF4FF480534FF6C03175
:100BD000CFF6FF714CF80130416B4FF48072028404
:100BE00001B18847002080BD806B704780B541F21D
:100BF0000C00C4F202004FF0FF310022016042609D
:100C00000160026000F038FA002080BDB0B50446F3
:100C100000F0E2F9054640F20400C2F2000000785C
:100C2000611C18BF044400BF00F0D6F9401BA0426D
:100C3000FAD3B0BD2DE9F04141F22858C2F20008C4
:100C400098F81820012A04BF0220BDE8F08105466B
:100C500001202E6888F818004CF250300C46FFF73F
:100C6000BBFD022E02D120B1012037E080B101206E
:100C700034E0FFF751FD4CF25030FFF7ADFD42F28A
:100C80001001C4F202010A6822F004020A6025E0A1
:100C90004FF0FF302060D5E9026006EBC0208642AD
:100CA00019D242F21007C4F2020700BF3046FFF724
:100CB00047FD4CF25030FFF78FFD396821F00201FB
:100CC000396050B9D5E9021206F5006601EBC22180
:100CD0008E42EBD302E0012000E02660002188F87C
:100CE0001810BDE8F081000042F21001C4F20201C8
:100CF000086840F0800200200A6070472DE9F04F3C
:100D000081B01C4641F22853C2F2000315461A7EF8
:100D1000012A03D1022001B0BDE8F08F81460120F5
:100D200018764CF250300E46FFF756FDC0BB4F46CA
:100D300042F2100AB9F1020F18BF0427C4F2020AE6
:100D4000B9F1010F08BF4F4600214FF020096FF0A5
:100D50001F0B4FF0000800BF0A01A9EB011304FAB2
:100D600003F325FA02F206EB41001A430BEB0111E3
:100D7000002958BF24FA01F291B2FFF7F5FC4CF2BA
:100D80005030FFF729FDDAF8001021F00101CAF810
:100D9000001028B908F101085FFA88F18F42DBD80A
:100DA00041F228520021C2F20002117601B0BDE8E2
:100DB000F08F000042F20400C4F20200C16809068C
:100DC0005CBF0020704740F22311C4F267510160FC
:100DD00048F6AB11CCF6EF510160C068C0F3C0100B
:100DE000704700002DE9F04F83B00C68002C00F034
:100DF000EA80A0F18042A2F5843240F2004E4FEA30
:100E0000B22241F60047C4F2010E0092C4F201077B
:100E1000062200254FF001094FF0000B4FF0000AA9
:100E2000B84208BF0522019209E000BF0C680BF12F
:100E3000010B34FA0BF205F1040500F0C48009FA45
:100E40000BF814EA080CF1D04C684FF6FF72C1F2AF
:100E50001002944210DC122C50D8DFE804F0330A60
:100E600041454F4F4F4F4F4F4F4F4F4F4F4F4F48B1
:100E70004C00D1F80CA041E04FF6FF72C1F2210204
:100E800094420FDC0022C1F2110294421AD00022D7
:100E9000C1F21202944215D00022C1F22102944202
:100EA00010D02BE00022C1F2220294420AD000228C
:100EB000C1F23102944205D00022C1F232029442C2
:100EC0001CD100BF8C6844B1012C14BFC0F8148041
:100ED000C0F810804FF0080A10E04FF0040A0DE04F
:100EE000CC6804F1080A09E04FF0000A06E0CC687B
:100EF00004F1040A02E0CC6804F10C0A2C4607460F
:100F0000BCF5807F24BF203C04373A680F2303FAE6
:100F100004F6B2430AFA04F422433A60CA79D206CC
:100F20007FF584AF41F21804C4F2020422684FF640
:100F3000084842F0010222602268CFF6FF7802F0F2
:100F400001020292029A2BF00302724452F8084006
:100F500005F00C0603FA06F7009BBC43019F052B26
:100F600038BF1F4607FA06F6344342F808404C687B
:100F7000E203DEF8002054BF22EA0C0742EA0C0725
:100F8000A203CEF80070DEF8042054BF22EA0C075A
:100F900042EA0C07E202CEF80470DEF8082054BFE3
:100FA00022EA0C0742EA0C07A20240F20C44CEF8F7
:100FB0000870C4F20104226854BF22EA0C0242EA1B
:100FC0000C02226032E703B0BDE8F08F002A08BFB0
:100FD000090401617047000041F24850C2F200006C
:100FE0000068704740F2040041F24851C2F200002C
:100FF000C2F2000100780A681044086070470000DF
:1010000080B542F20000C4F20200016841F0100114
:101010000160032000F068F8002000F005F800F0FF
:101020002DF8002080BD0000B0B540F20402C2F2ED
:10103000000240F200011278C2F200014FF47A730C
:101040000968B3FBF2F20446B1FBF2F1084600F086
:10105000F3FC0F2C4FF001050CD858B94FF0FF30BE
:1010600021460022002500F02FF840F20800C2F2CD
:10107000000004602846B0BD7047000082B041F215
:101080001800C4F202000168022241F0010101606F
:10109000016801F0010101910199416841F080511D
:1010A0004160406800F08050009000980420C4F235
:1010B0000100016862F31A61016002B0704700002C
:1010C00080B501F083FA80BD70B514460D46064622
:1010D00001F08CFA2946224600F082FF0146304694
:1010E00001F08CFA70BD000080B501F099FA80BD66
:1010F0002DE9F04381B0002800F0878042F200081B
:10110000C4F202080446D8F800000D4600F00700BB
:1011100088420CD2D8F8000020F007002843C8F815
:101120000000D8F8000000F00700A8426DD1206848
:1011300041F204098107C4F2020917D5410705D518
:10114000D9F8001041F4E061C9F80010010705D595
:10115000D9F8001041F46051C9F80010D9F8001016
:10116000A26821F0F0011143C9F80010C00745D171
:10117000D8F8000000F00700A8420CD9D8F8000009
:1011800020F007002843C8F80000D8F8000000F05D
:101190000700A84239D12068410707D5D9F80010C7
:1011A000E26821F4E0611143C9F80010000708D596
:1011B000D9F80000216920F4605040EAC100C9F864
:1011C000000000F077F8D9F8001042F62032C1F3A1
:1011D0000311C0F60002515C40F2000220FA01F156
:1011E00040F20800C2F200000068C2F20002116082
:1011F000FFF71AFF002001B0BDE8F0836068012806
:1012000007D159F8041C89030CD4012001B0BDE8B2
:10121000F08359F8041C022802D18901F5D501E0B8
:101220008907F2D5D9F8001021F003010843C9F865
:101230000000FFF7D1FE064641F28837D9F80000DA
:10124000616800F00C00B0EB810F91D0FFF7C4FE95
:10125000801BB842F2D9032001B0BDE8F083000042
:1012600040F20000C2F200000068704780B5FFF74E
:10127000F7FF41F20401C4F20201096842F630327C
:10128000C1F30221C0F60002515CC84080BD0000DD
:1012900080B5FFF7E5FF41F20401C4F202010968DD
:1012A00042F63032C1F3C221C0F60002515CC840A0
:1012B00080BD000041F2040CC4F2020CDCF80030E6
:1012C00003F00C00082841F20020C0F27A0018BF99
:1012D0007047C3F383420AA18A5CD90305D440F660
:1012E0000010C0F23D0050437047DCF8001008A326
:1012F000C1F34041595C5043B0FBF1F0704700BF6F
:1013000002030405060708090A0B0C0D0E0F101046
:10131000010200002DE9F04182B0002800F0C480F5
:101320000446007841F20006C007C4F2020643D02A
:10133000706800F00C00042817D0706800F00C00F2
:10134000082802D17068C0030FD465689DB1B5F557
:10135000803F06D03068B5F5A02F0DD140F4802035
:101360003060306840F480300CE03068800323D572
:10137000606808BB98E0306820F4803030603068E6
:1013800020F480203060FFF727FE002D054610D0A6
:101390003068800310D4FFF71FFE401B6428F7D984
:1013A00008E100BFFFF718FE401B64284FF0030060
:1013B00077D830688003F5D42078800718D5706816
:1013C00010F00C0F07D0706800F00C00082826D130
:1013D0007068C00323D43068800702D520690128D3
:1013E00062D13068616920F0F80040EAC1003060E5
:1013F000207800073DD5A06938B30020C4F2422010
:101400000121C0F88014FFF7E7FD0546706A8007E8
:101410002DD4FFF7E1FD401B0228F7D9CAE020696F
:10142000002840F20000C4F2422000F09A8001211E
:101430000160FFF7D1FD054630688007D1D4FFF782
:10144000CBFD401B0228F7D9B4E00020C4F24220B3
:101450000021C0F88014FFF7BFFD0546706A8007C1
:1014600007D5FFF7B9FD401B0228F7D9A2E000F02D
:10147000CFFD207840071BD4E5698DB1706800F07E
:101480000C0008284CD1012D0ED07068216A00F4A0
:1014900080328A4208D1616A00F47010884203D118
:1014A000002002B0BDE8F081012002B0BDE8F0816B
:1014B000F069C0000BD4F0694FF0010840F0805093
:1014C000F061F06900F080500190019801E04FF068
:1014D000000847F20007C4F200073868C00510D4BE
:1014E000386840F480703860FFF776FD054600BF2D
:1014F0003868C00505D4FFF76FFD401B6428F7D995
:1015000058E0E568002D3DD0012D05D0306A052D4D
:1015100039D140F004003062306A40F0010038E018
:101520000027C4F2422700203866FFF755FD022D40
:1015300005460BD13068800154D5FFF74DFD401BA7
:1015400002284FF00300F5D9ABE700BF30688001F7
:10155000A6D5FFF741FD401B02284FF00300F5D947
:101560009FE700210160FFF737FD054630688007DF
:101570007FF53EAFFFF730FD401B02284FF0030020
:10158000F4D98EE7306A20F001003062306A20F032
:1015900004003062FFF720FD002D054641F2883738
:1015A00014D000BF306A800713D4FFF715FD401B2D
:1015B000B842F7D9032002B0BDE8F081FFF70CFD77
:1015C000401BB8424FF003003FF66BAF306A800714
:1015D000F4D4B8F1000F3FF44FAFF06920F0805021
:1015E000F06149E7206AB0F5803F05D17168A268D3
:1015F00021F40031114371607168626A21F4741141
:1016000010430843706001203866FFF7E5FC04468C
:10161000306880013FF544AFFFF7DEFC001B022875
:101620004FF00300F4D93CE770470000B0B584B038
:1016300004460068416882684B0605D502F0410304
:10164000012B01D1216C05E00B0607D512F0020336
:1016500004D0616C2046884704B0B0BD8B065AD5D3
:1016600012F0600357D012F0400317D094F85130B5
:10167000032B08D100210291C16802918068029079
:10168000029804B0B0BD636D43F0040363650023AA
:101690000393C368039383680393039B12F02002B0
:1016A0000CD0626D42F001026265002201928268F4
:1016B0000192026822F040020260019A626D52B308
:1016C0004268890722F0E00242604FF0010284F88C
:1016D00051201DD0416842F2910521F00301416083
:1016E000E06CC0F6000538B14563FFF7CFF918B1DB
:1016F000606D40F040006065A06C60B14563FFF72D
:10170000C5F940B1606D40F04000606504B0B0BD07
:101710002046FFF789FF04B0B0BD000070B538B1B6
:101720000446406A30B10020206104F1140007E053
:10173000012070BD6068B0F5827F03D004F11C0009
:10174000002101600026A66294F8510020B92046CD
:1017500084F8506000F038F8022084F8510094E8D2
:10176000071001F48271036802F4044223F040037D
:101770000360236911440CF40062114403F0020277
:101780006369114403F00102A369E569114403F49C
:101790000072114405F03802256A114405F08002F8
:1017A000A56A114305F4005211430160042101EAC6
:1017B00013414160C16921F40061C1610120666586
:1017C00084F85100304670BD70B586B0002640F6F2
:1017D00000040596CDE90366C4F20104006804F52F
:1017E00020518842029601D006B070BD41F2180027
:1017F000C4F20200016802AD41F480510160016849
:1018000001F4805101910199016841F004010160E6
:101810000068294600F0040001900198A020029081
:1018200002200390032005902046FFF7DBFA4020BA
:10183000CDE902060120049020462946FFF7D2FA9E
:10184000232000210022FFF73FFC2320FFF738FC74
:1018500006B070BD2DE9F04381B0044690F8500009
:10186000012803D1022001B0BDE8F08301201E460B
:1018700015460F4684F85000FFF7AEFB94F8511060
:10188000814601290CD06068B0F5827F76D10429A9
:101890004FF0020040F0C680A168002940F0C280ED
:1018A000002F4FF0010018BF002D00F0BB80002E6C
:1018B00000F0B88094F85100002104281CBF0520D6
:1018C00084F851006165A563E687A6872763E686ED
:1018D0002068A686216461640168490603D4016812
:1018E00041F0400101606168731EE268B1FA81F164
:1018F000B3FA83F3DDF8208049095B09B2F5006F84
:1019000041EA03013CD139B1216B0988C160B81C9F
:101910002063E08E0138E086012608F1010500BF52
:10192000E08E10B9E08F002866D0206881688907B2
:101930000CD5E18E012E09D141B1216B002631F881
:10194000022BC2602163E18E0139E1868168C907FB
:101950000AD0E18F41B1C068A16B012621F8020BCA
:10196000A163E08F0138E087FFF736FB002DD7D069
:10197000A0EB09004045D3D3032053E0022051E0FF
:1019800039B139780173206B01302063E08E013862
:10199000E086012608F10105E08E08B9E08F58B312
:1019A0002068816889070DD5E18E012E0AD149B1E1
:1019B000216B002609780173206B01302063E08ED3
:1019C0000138E08620688168C9070BD0E18F49B1F2
:1019D000C068A16B01260870A06B0130A063E08F86
:1019E0000138E087FFF7F8FA002DD5D0A0EB090009
:1019F0004045D1D3032015E0204641464A4600F039
:101A00004FFB18B12020606501200BE0A068002882
:101A10004FF0000006D100902168CA6800928968E2
:101A200000910099012184F85110002184F8501090
:101A300001B0BDE8F083000080B500F0C5FB80BDBB
:101A40007047000010B504460068C16821F4F071C9
:101A5000C160416921F001014161216B012903D17C
:101A6000C16821F01001C160416909060FD54169C3
:101A700021F080014161606B48B100214163FEF7B4
:101A8000E5FF20B1606BFFF7AFF8202813D0206886
:101A90004169490613D5416921F040014161A06BBC
:101AA00068B100214163FEF7D1FF40B1A06BFFF7A1
:101AB0009BF8202803D110202064032010BD0020B3
:101AC0002021E084E085206484F83E1084F83D10F5
:101AD000206310BD7047000090F83D1090F83E0064
:101AE0000843C0B27047000070B582B00168044678
:101AF0000868CA684D6900F02F03202B02F020030C
:101B000005D123B1204600F045FC02B070BD5FEA6C
:101B1000007C07D005F0010E12F4907F8EF00105D5
:101B200026D12DB3236B1040C20617D5012B15D13A
:101B30000020019008680190486801900198486968
:101B400040066CD4A08DE28DE38D002B1CBF801A63
:101B50005FEA004240F09C8002B070BD010600F1D7
:101B600086804006F8D5204600F008FC02B070BD23
:101B7000C10718BF12F4807103D0216C41F001013C
:101B8000216400F00406012181EA96062E4303D168
:101B9000266C46F00206266400F0020681EA560131
:101BA000294303D1216C41F0040121645EEA030161
:101BB00018BF0121BCF1000F04D519B1216C41F00F
:101BC00008012164216C0029C6D01040800602D58E
:101BD000204600F0DFFB20684069216C00F04000E7
:101BE00001F0080140184CD0204600F0B1FB2068FD
:101BF0004169490640D5416921F040014161A06B2E
:101C0000D0B342F24131C0F600014163FEF73EFF1E
:101C10000028A1D0A06B416B884702B070BDA06BBB
:101C20000268526893B2002B96D0A68DB34293D22D
:101C3000E2858269202A16D0CA6822F48072CA60BE
:101C40004A6922F001024A614A6922F040024A616F
:101C5000202284F83E2000222263CA6822F010026B
:101C6000CA60FEF7F3FEA08DE18D401A21E0204608
:101C700000F032FC02B070BD2046FFF72BFF02B02F
:101C800070BD2046FFF726FF0020206402B070BD23
:101C9000CA6822F49072CA604A6922F001024A615D
:101CA000202284F83E2000222263CA6822F010021B
:101CB000CA6081B22046FFF7C3FE02B070BD0000CB
:101CC000002804BF0120704710B5044690F83D007D
:101CD00028B9002084F83C00204600F021F8242098
:101CE00084F83D002068C16821F40051C16020469D
:101CF00000F0AAFB2068016921F49041016141696B
:101D000021F02A014161C16841F40051C160002005
:101D10002021206484F83D1084F83E1010BD00009E
:101D200070B586B0002640F600040596CDE903663E
:101D3000C4F20104006804F540518842029601D0C3
:101D400006B070BD41F21800C4F20200016802AD95
:101D500041F480410160016801F4804101910199E1
:101D6000016841F0040101600068294600F00400A8
:101D7000019001984FF4007002900220039003201C
:101D800005902046FFF72EF84FF48060CDE902065B
:101D9000204629460496FFF725F825200121002238
:101DA000FFF792F92520FFF78BF906B070BD000010
:101DB000704700002DE9F04381B0044690F83D00E3
:101DC00020280BD10E4600294FF0010055D01746B0
:101DD000002A52D094F83C00012803D1022001B01F
:101DE000BDE8F083012084F83C004FF00009212079
:101DF0001D46C4F8409084F83D00FFF7EDF8A78435
:101E0000E784A1680746B1F5805F07D12069002803
:101E10001CBF30464E46B046064601E04FF0000873
:101E200084F83C9007E000BF16F8010B2168486079
:101E3000E08C0138E084E08C80B1204680213A4675
:101E40002B4600F073FB80B9002EEDD138F8020B61
:101E500021686FF35F2048600026E9E720464021B3
:101E60003A462B4600F062FB18B1032001B0BDE8F2
:101E7000F083202084F83D00002001B0BDE8F0830D
:101E800070470000FEE700002DE9F04F85B04FF0ED
:101E9000000841F21800CDE90388CDE90188C4F2B9
:101EA0000200016840F6000941F04001016001684C
:101EB000C4F2010901F0400100910099016809F59F
:101EC000805641F0100101600168012201F010010B
:101ED000009100990168602741F0040101600068E9
:101EE000602100F004000090009830460124FFF7C4
:101EF0006DF84846102100224FF0100AFFF766F8EF
:101F000009F50065284620210022FFF75FF8CDE99A
:101F1000017401AF4FF0020B304639460394CDF8FF
:101F200010B0FEF75FFF48463946CDE901A4CDE980
:101F3000038BFEF757FF202001A981E811092846ED
:101F40003946FEF74FFF05B0BDE8F08F80B541F28E
:101F5000884043F20001C2F20000C4F201014FF4D4
:101F60008272002380E80E0000F114014FF4007C1F
:101F70004FF0100EC0E9033381E808500A21C0E990
:101F80000833C0E90A31FFF7C9FB002808BF80BD4C
:101F9000FEF7BCFB10B543F60C04C4F2010441F299
:101FA000E040A4F10C01C2F2000000234FF00C0C41
:101FB0004FF4E13280E80E00C0E90333C0E905C305
:101FC000C361FFF77DFE002801BF206840F02000BC
:101FD000206010BDFEF79AFBFEE70000FEE7000060
:101FE00000F0070080F00703042B28BF04234FF004
:101FF000FF3C03380CFA03F338BF002099438140BB
:102000000CFA00F022EA0000084370477047000015
:1020100081B040F20000C2F20000006844F6D351E3
:10202000C1F26201A0FB0101480A009000BF0098C4
:10203000411E00280091F9D101B070470188428803
:10204000914204BF002070474A1C014409791FFADD
:1020500082FC40F2DB539C4588BF00220280084688
:10206000704700004288531C1FFA83FC43800244DF
:1020700040F2DC539C45117124BF00214180704720
:1020800080B541F28840C2F20000FFF7CFFA80BD70
:1020900080B5406A0021C187C186FFF7C5FA80BDBF
:1020A00010B513460A468021044600F023F80028A4
:1020B0000FBF0020606D40F02000606518BF032056
:1020C00010BD000080B582B08DF8070041F2884055
:1020D0004FF0640CC2F200000DF107010DF1060291
:1020E0000123CDF800C0FFF7B5FB9DF8060002B054
:1020F00080BD00002DE9F04381B01E4690460D469C
:102100008146FEF769FF301A00EB0807FEF764FF0F
:1021100040F20001C2F200010968C1F3CB317943FA
:102120000091D9F8001089682940A94219D10646C2
:1021300008F1010406E000BFD9F8000080682840DB
:10214000A8420ED1002CF7D0FEF746FF801BB84204
:102150000BD200980099002808BF0746481E00903F
:10216000EAE7002001B0BDE8F083D9E90001426848
:10217000B1F5827F22F0E00242600BD1D9F808105D
:10218000B1F5004F02D0B1F5806F03D1016821F0A5
:1021900040010160D9F82810B1F5005F07D101684E
:1021A00021F400510160016841F4005101600120F7
:1021B00089F85100002089F85000032001B0BDE8E3
:1021C000F083000070470000B0B501380024B4EB84
:1021D000106F1CBF0120B0BD4EF21005CEF20005FD
:1021E00068604FF0FF300F2100F008FA0720AC6064
:1021F00028602046B0BD000010B5FEF7F3FE40F2A7
:102200007004C2F20004B4F82C0A40B10138010491
:10221000A4F82C0A04BF40F20110A4F82E0A94F886
:102220002E0A012818BF10BDFEF7AAF940F6A461D6
:102230000020C2F2000184F82E0AA1F8E00510BDCA
:10224000B0B590B006AC20462821FEF74FF802202A
:10225000069001200A90102000250B90204605953D
:10226000CDE90355CDE901550D95FFF753F868B950
:102270000F20CDE9010501A80021CDE90355059501
:10228000FEF736FF002804BF10B0B0BDFEF73EFADF
:102290004EF60850CEF200004FF00061016070472A
:1022A000F0B581B005460C46104629461F4600F0A1
:1022B00029F806463846294600F024F8721C4FF0EB
:1022C00000011BD04FF6FF7387B29F4216D0811BCF
:1022D000022901DA002111E011B281420DDA4A1916
:1022E000013A0023013112F8017F09B21EB2013315
:1022F0008142A755F6DB012100E00121084601B02B
:10230000F0BD00002DE9F0410C4609784FF6FF784A
:1023100061B1054600260027A05DA8420AD001371A
:102320002046FEB2FDF799FFB042F5D80FFA88F0CB
:10233000BDE8F0815FFA87F80FFA88F0BDE8F08118
:1023400080B5406A0021C185C184FFF7C3FB80BD11
:102350000168CA6822F49072CA604A6922F00102D8
:102360004A61026B012A03D1CA6822F01002CA60D6
:10237000202180F83E1000210163704780B501687C
:10238000CA6822F04002CA60202180F83D10FFF7A1
:1023900077FD80BD80B582B090F83E1022291ED115
:1023A0008268B2F5805F02D10169002940D0816A5C
:1023B000B2F5805F07D00AB9026922B1026852689B
:1023C00002F07F0201E0026852680A700121826A0D
:1023D00011448162C18D01390A04C18501D002B066
:1023E00080BD0168CA6822F02002CA60CA6822F46F
:1023F0008072CA604A6922F001024A61202280F894
:102400003E20026B012A1BD100220263CB6823F01D
:102410001003CB600B68DB0605D501920A680192B8
:10242000496801910199818DFFF70AFB02B080BDD7
:102430000168826A49686FF35F2111800221C6E753
:10244000FFF7B6FC02B080BD10B504460068D4E9C1
:1024500002C22369016921F440511143016161699C
:1024600043EA0C021143C26841F20C639A431143E0
:10247000C1604169A26921F44071114343F6000231
:10248000C4F201029042416102D0FEF7EFFE01E08A
:10249000FEF7FEFE6268192148439100B0FBF1F09F
:1024A00048F21F51C5F2EB11A0FB01235A096FF04E
:1024B000630302FB0300322303EB0010A0FB0101C6
:1024C000F02303EA5113206803EB0212C1F3431116
:1024D0001144816010BD000090F83D10212923D1E6
:1024E0008168B1F5805F01D1016931B1016A02688B
:1024F0004B1C03620978516007E0016A036831F8F8
:10250000022B6FF35F225A600162C18C01390A0409
:10251000C18418BF70470068C16821F08001C160A4
:10252000C16841F04001C160704700002DE9F041F1
:102530000446006800680840884202D10020BDE8D7
:10254000F0811D460E4690465F1C04E0206800683E
:102550003040B042F2D0002FF8D02DB1FEF73CFD54
:10256000A0EB0800A842F1D92068C16821F4D0711D
:10257000C160416921F001014161202084F83D00E2
:1025800084F83E00002084F83C000320BDE8F08180
:1025900080B543F60400C4F201000068C1B240F601
:1025A000A460C2F20000FFF75DFD40F27000C2F2CD
:1025B00000003221A0F82C1A41F2E040C2F20000E3
:1025C000FFF792FA80BD0000FEE70000002848BF38
:1025D000704700F01F01012202FA01F14EF20012D1
:1025E0004009CEF2000242F8201070474EF60C501F
:1025F000CEF200000068C0F3022070474EF614537C
:1026000000F00F02CEF2000309011A4400F160430A
:10261000B0F1FF3FC8BF03F564421170704700007E
:102620004EF60C51CEF200010A684FF6FF031A4035
:1026300060F30A2242F0806040F0FD70086070474D
:1026400010B586B00446FEF7B5FB0020CDE90100C9
:10265000012003904FF6FF70C0F60700001BC00A70
:10266000059002A801A90494FEF7E4FA0446FEF7D7
:102670003BFB1420FEF7CAFA002C18BFFF242046AB
:1026800006B010BDB0B548F20004C0F6000465689D
:10269000FEF7ACFA206880F30888A847B0BD0000B8
:1026A0002DE9F04381B0144688460646FEF782FBCA
:1026B0003CB34FF6EF790025C0F60109002700BFB3
:1026C0004E4505D347F00107380616D01AE000BF83
:1026D00058F82520022031460023FEF70FFB002882
:1026E00058F8250056F8041B18BF47F00207884227
:1026F00018BF47F00407380604D10135A542DFD3DF
:1027000000E00027FEF7F0FAF8B201B0BDE8F08370
:10271000FEF776FCFFF794FDFFF7B6FBFFF716FC1C
:10272000FFF738FC13A000F07BF842F63830C0F613
:10273000000000F075F8FDF7D9FF00F00BF940F24A
:102740007005C2F2000540F6A4670026C2F2000739
:10275000AC1C00BF95F82F0A0128FBD185F82F6A21
:10276000FDF730FF204640F62821A7F8E065FDF789
:102770009BFDEFE70A0D3D3D3D3D3D3D3D3D3D3D72
:102780003D3D3D3D3D3D3D3D3D3D3D3D3D3D3D3D79
:102790003D3D3D3D3D3D0A0D00000000002A08BFC3
:1027A000704780B5CBB211461A46FDF775FDBDE8FE
:1027B0008040704761B140F27002C2F20002013203
:1027C000431E00BF12F801CF013903F801CFF9D140
:1027D00001780020002908BFFF20704780B582B033
:1027E0008DF8070041F2E040C2F20000FFF774F9F3
:1027F000A02805D141F2E040C2F20000FFF722F923
:1028000041F2E040C2F200000DF1070101224FF455
:10281000FA63FFF7CFFA002818BFFF2002B080BD8F
:1028200080B50146002000BF82B28B5C0130002BD6
:10283000FAD141F2E040C2F200004FF4FA63FFF730
:10284000B9FA002818BFFF2080BD000010B540F67F
:10285000A020C2F200004FF6FE7300F1020E4FF40A
:10286000806C0022C0F2010341F221019EF80000B9
:10287000ACF1010C82EA0022002000BF140403EA3C
:10288000420248BF4A40072800F10100F6D35FEA40
:102890000C400EF1010EE9D190B210BDB0B5017837
:1028A0000131CAB2032A017005D318201825FFF799
:1028B00095FFFF2401E0002415252846FFF78EFF31
:1028C0002046B0BD70B540F27000C2F200004188F1
:1028D00040F6A025C2F20005447929804FF0FF316F
:1028E00040F2FF326B18DC704318DC790131914201
:1028F000F8D190F8066485F8024485F80364FFF780
:10290000A5FF46EA04210C1A18BF012481421FD1F9
:1029100041F24C50C2F20000017840F20C0600294E
:1029200004BF01210170C2F2000631680235284659
:102930004FF48062FEF716F86420FEF767F9284628
:102940004FF48061FDF7B0FC306800F580603060C6
:10295000204670BD2DE9F04F81B041F24C5440F259
:10296000700A4FF00009C2F20004C2F2000A8DF8AA
:10297000039084F800908DF802908AF82A9A9DF8C6
:10298000030010B101B0BDE8F08F0DF101084FF068
:10299000030B0DF102050AF102060FE08DF802B0FB
:1029A0002846FFF77BFF8DF803009AF82A0A0130CA
:1029B0008AF82A0A9DF803000028E3D14046012145
:1029C0008DF80190FFF7F6FE074670B1207828B128
:1029D0002846FFF763FF8DF8030006E04FF47A7096
:1029E000FEF714F94320FFF7F9FE9DF80100411EA0
:1029F000022905D3042811D018285DD1FF2061E0F9
:102A0000FFF760FF0828C9D00028C9D10620FFF7CA
:102A1000E5FE4FF4FA70FEF7F9F8C6E70620FFF777
:102A2000DDFE9620FEF7F2F8304640F21451FDF735
:102A30003BFC26A0FFF7F4FE48F20000C0F60000C1
:102A4000FFF7FEFD0028B5D132202C463546FEF7B3
:102A5000DDF89AF82A0A00B34FF400404FF0000B5B
:102A600087B20AF21656384631464FF48062FDF7B7
:102A700023FF0A20FEF7CAF8384631464FF4807229
:102A8000FFF70EFE0A20FEF7C1F89AF82A0A0BF1AA
:102A9000010B834507F58060E2D312A0FFF7C0FE6B
:102AA000FFF7F0FD2E46254641F24C544FF0030B44
:102AB000C2F200047EE700BF002F7FF47BAF284600
:102AC000FFF7ECFE8DF8030074E700BF0A0D4669BE
:102AD000726D7761726520757064617465643F0A18
:102AE0000D0000000D55706461746520586F6E67AD
:102AF00020210D0010B500290AD00878002807D041
:102B000005487844FDF7F4FC002801D0002010BDF2
:102B10000248784410BD0000A60000009E0000009E
:102B2000000000000000000001020304060708097D
:102B30000000000001020304506C6561736520739E
:102B4000656E642061206E65772062696E617279BE
:102B50002066696C65207769746820586D6F6465BC
:102B60006D2070726F746F636F6C20746F2075705E
:102B70006461746520746865206669726D7761723E
:102B8000652E0A0D00000000B82C0008000000208F
:102B9000100000006C010008C82C00081000002084
:102BA000401B0000880100081001000043000000E5
:102BB000F8FFFFFF0040404040404040404041415E
:102BC0004141414040404040404040404040404002
:102BD000404040404005020202020202020202029C
:102BE0000202020202202020202020202020200299
:102BF0000202020202029090909090901010101029
:102C000010101010101010101010101010101010C4
:102C10000202020202028888888888880808080858
:102C20000808080808080808080808080808080824
:102C3000020202024000000000000000000000004C
:102C40000000000000000000000000000000000084
:102C50000000000000000000000000000000000074
:102C60000000000000000000000000000000000064
:102C70000000000000000000000000000000000054
:102C80000000000000000000000000000000000044
:102C90000000000000000000000000000000000034
:102CA0000000000000000000000000000000000024
:102CB00000000000000000000024F40001000000FB
:082CC00010000000008000007C
:0400000508000131BD
:00000001FF
