:020000040800F2
:10000000501B0020DD010008F31E0008B51D00088C
:10001000F11E0008C5050008A52300080000000027
:100020000000000000000000000000004D2000085B
:10003000B906000800000000F51E00085120000865
:10004000F7010008F7010008F7010008F7010008B0
:10005000F7010008F7010008F7010008F7010008A0
:10006000F7010008F7010008F7010008F701000890
:10007000F7010008F7010008F7010008F701000880
:10008000F7010008F7010008F7010008F701000870
:10009000F7010008F7010008F7010008F701000860
:1000A000F7010008F7010008F7010008F701000850
:1000B000F7010008F7010008F7010008F701000840
:1000C000F7010008F7010008F7010008391F0008D0
:1000D000F701000875230008F7010008F701000880
:1000E000F7010008F7010008F7010008F701000810
:1000F000F7010008F7010008F7010008F701000800
:10010000F7010008F7010008F7010008F7010008EF
:10011000F7010008F7010008F7010008F7010008DF
:10012000F7010008F7010008F7010008F7010008CF
:1001300000F002F800F043F80AA090E8000C8244B6
:100140008344AAF10107DA4501D100F038F8AFF293
:10015000090EBAE80F0013F0010F18BFFB1A43F0A5
:1001600001031847E826000008270000103A24BFC2
:1001700078C878C1FAD8520724BF30C830C144BF0C
:1001800004680C607047000000230024002500264E
:10019000103A28BF78C1FBD8520728BF30C148BFEA
:1001A0000B6070471FB500F093F904000020002198
:1001B00002F002FB401C60601FBD10B510BD00F0D6
:1001C00062F91146FFF7EEFF02F05CF900F092F9D8
:1001D00003B4FFF7F2FF03BC00F0D6F909488047EB
:1001E00009480047FEE7FEE7FEE7FEE7FEE7FEE719
:1001F000FEE7FEE7FEE7FEE704480549054A064B31
:1002000070470000ED200008310100085015002063
:10021000501B00205017002050170020B2F120037F
:100220000AD5C2F1200320FA02F001FA03F321FA01
:1002300002F140EA0300704721FA03F04FF0000199
:10024000704770B5064600F087F8046805463046EA
:100250000A22002100F084F82C6070BD30B50546FC
:100260000B462A4613F8014B12F8010B08B1A042C5
:10027000F8D01CB1002802D06D1CF1E7284630BD33
:1002800010B5431C02E010F8011B71B18107FAD1CF
:100290004FF0013202C88C1A8C4314EAC211F9D013
:1002A000C01A0A0603D0C01E10BDC01A10BD0A0431
:1002B00001D0801E10BD0902FCD0401E10BD4FF0C1
:1002C00000020429C0F0128010F0030C00F01B8023
:1002D000CCF1040CBCF1020F18BF00F8012BA8BF31
:1002E00020F8022BA1EB0C0100F00DB85FEAC17CF5
:1002F00024BF00F8012B00F8012B48BF00F8012BA8
:1003000070474FF0000200B51346944696462039D8
:1003100022BFA0E80C50A0E80C50B1F12001BFF4BE
:10032000F7AF090728BFA0E80C5048BF0CC05DF824
:1003300004EB890028BF40F8042B08BF704748BF72
:1003400020F8022B11F0804F18BF00F8012B7047E6
:10035000704770477047000000487047F014002055
:100360002DE9F04791460F4680460446002614F8D2
:10037000015B2DB100F030F80068405DC007F6D198
:100380002B2D02D02D2D18D0641E4A46394620460A
:1003900000F02AF827B13968A14201D1C7F80080DE
:1003A0004FF0020471050BD54042002803DDFFF732
:1003B000D3FF0460A007BDE8F08746F48066E4E759
:1003C0000028F8DAFFF7C8FF04606FF00040F2E79A
:1003D00000487047F014002010B500F079F8001DB7
:1003E00010BD00BFD52300002DE9F05F8246154601
:1003F0008B4600270AF10104B9460078302801D065
:100400009DB113E014F8010B0127782803D0582878
:1004100001D045B10AE00DB1102D07D1002714F825
:10042000010B102502E0082500E00A250026B04651
:100430000EE005FB080005FB06F101271FFA80F816
:1004400001EB1046B6F5803F00D3B94614F8010B16
:10045000294600F041F80028EBDABBF1000F05D087
:100460000FB1641E00E05446CBF80040B9F1000F14
:1004700006D0FFF771FF02210160C81EBDE8F09FA2
:1004800048EA0640FAE77546FFF7A2FFAE460500C8
:100490006946534620F00700854618B020B5FFF79F
:1004A000ABFEBDE820404FF000064FF000074FF0D4
:1004B00000084FF0000B21F00701AC46ACE8C00982
:1004C000ACE8C009ACE8C009ACE8C0098D4670478B
:1004D00000487047101500203A2800D2303820F02C
:1004E0002002412A01D3A2F13700884201D34FF004
:1004F000FF30704710B50446AFF300802046BDE8DA
:100500001040FFF765BE00004FF0013C50F8042B8F
:1005100051F8043B9A4221D1A2EB0C03934313EA16
:10052000CC1317D150F8042B51F8043B9A4215D143
:10053000A2EB0C03934313EACC130BD150F8042B1A
:1005400051F8043B9A4209D1A2EB0C03934313EAFE
:10055000CC13DBD04FF00000704700BFD01A01BAB7
:10056000B1FA81F101F0180122FA01F0CB40C1F19A
:100570002001DBB2C0B2C01A2CFA01F3D11A9143A8
:1005800011EAC311E6D1704701491820ABBEFEE75E
:10059000260002007047000030B5094C04F2E45513
:1005A00008E0074801F0A7FCB4F8E0154855491CDD
:1005B000A4F8E015208861888842F2D130BD00009F
:1005C00018000020FEE700002DE9FE430A2200216A
:1005D000684601F0A1FF304C2DA1A01CFFF73EFEA4
:1005E00004F2165778B1292328226946A01C01F08D
:1005F0007EFD6846FFF725FE6422394600F030F99B
:10060000384601F0BDFF25A1A01CFFF727FE58B317
:10061000292328226946A01C01F069FD6846FFF7DE
:1006200010FE064600254FF480684FF4807912E0F2
:1006300042463946304600F013F90A2000F09EFA8F
:100640004A463946304601F0EDFE0A2000F096FA9F
:100650006D1C06F5806694F82A0AA842E8DC11A011
:1006600001F08EFF01F0D0FE11A1A01CFFF7F6FDF6
:1006700000280AD0292328226946A01C01F037FD52
:100680006846FFF7DEFD00F0C5F8BDE8FE83000018
:100690005241444400000000FA05002055504441F6
:1006A0005445000055706461746520586F6E670092
:1006B0004552415345000000704770B5202426255F
:1006C000200300F0A7F8641CA4B2322000F056FA10
:1006D000AC42F5D370BD000006490020C861064851
:1006E000016941F004010161016941F040010161CA
:1006F00070470000D014002000200240064A00216C
:10070000D16106490A6942F002020A61486108693A
:1007100040F0400008617047D014002000200240E3
:10072000044B0022DA61044A136943F001031361A8
:1007300001807047D014002000200240144800229D
:10074000C168CB06134904D5CA6942F00202CA61E6
:100750001022C3685B0705D5CB6943F00103CB6169
:1007600042F00402C369DB0707D0CB6943F00403FE
:10077000CB61C16921F00101C161A2F5807101392C
:1007800001D0C2607047C16921F00101C1617047A9
:1007900000200240D014002070B5054600F0B4FBE4
:1007A0000646114C09E0681C07D025B100F0ACFBEF
:1007B000801BA84201D9032070BDE068C007F2D1B8
:1007C000E068800601D52020E060E068C00605D41E
:1007D000E069C00702D1E068400703D5FFF7AEFF2C
:1007E000012070BD002070BD0020024010B5084CF3
:1007F00000221021204600F081FB062001F0BAFB08
:1008000020460122BDE81040102100F077BB000017
:100810000008014070B50446FFF7E8FF0F4D0022C5
:100820001021284600F06AFB202001F0A3FBC4F34E
:10083000074001F09FFBC4F3072001F09BFBE0B2EF
:1008400001F098FB01221021284600F057FB0120FF
:1008500000F094F9BDE8704000F034B800080140A1
:10086000F8B5174F14460D460646002210213846AB
:1008700000F044FB032001F07DFB8DF80000C6F37F
:10088000074001F077FB8DF80000C6F3072001F068
:1008900071FB8DF80000F0B201F06CFB8DF80000E8
:1008A00004E0002001F066FB05F8010B641EA4B211
:1008B000F7D23846BDE8F8400122102100F01EBBF7
:1008C0000008014070B56FF07044012000F056F947
:1008D0000B4D00221021284600F010FB052001F0EE
:1008E00049FB002001F046FB641EC00701D0002C2C
:1008F000F7D12846BDE870400122102100F0FEBA71
:10090000000801402DE9F04107460E461446C8B2E2
:1009100001194FF48078414508D83946304600F037
:1009200033F8BDE8F041012000F028B9C0F580752A
:100930002A463946304600F027F8012000F01EF91B
:10094000601BC11700EB1161C1F30F242E443D441D
:1009500021F0FF01471A64B90EE0424629463046AD
:1009600000F012F8012005F5807506F5807600F09C
:1009700005F9641EA4B2F0D2BAB229463046BDE8E9
:10098000F04100F001B800002DE9F04114460D4699
:100990000646FFF72BFF114F00221021384600F0CA
:1009A000ADFA022001F0E6FAC6F3074001F0E2FAE0
:1009B000C6F3072001F0DEFAF0B201F0DBFA03E043
:1009C000287801F0D7FA6D1C641EA4B2F8D238461C
:1009D000BDE8F0410122102100F090BA000801406A
:1009E00010B590F821100022022905D0042181635E
:1009F00080F82020012010BD01680B6823F00E0351
:100A00000B6001680B6823F001030B6090F8403025
:100A1000C46B012101FA03F3636080F8211080F8B0
:100A20002020104610BD00002DE9F05F90F8211045
:100A30000024022903D004218163012485E0016898
:100A40000A6822F00E020A6001680A6822F00102B8
:100A50000A603F4E3E4FB215DFF8F4C0DFF8F09069
:100A6000DFF8ECA0DFF8E8B0DFF8E4E00168783FF9
:100A700013011502ACF1640CA9F15009AAF13C0A6A
:100A8000ABF1280BAEF1140E4FF48018B14227D908
:100A9000B9420ED0614512D049451DD0514518D0FC
:100AA000594518D0714501D1424615E0294EB14251
:100AB00001D1012210E0274E1436B14201D110229B
:100AC0000AE0244E2836B14206D0224A3C329142F6
:100AD00001D11A4600E02A461E49091F0A602BE090
:100AE000B94213D0614517D0494522D051451DD098
:100AF00059451DD0714501D142461AE0B14202D19B
:100B00004FF0807215E0134EB14201D1012210E086
:100B1000104E1436B14201D110220AE00D4E283693
:100B2000B14206D00B4A3C32914201D11A4600E054
:100B30002A46074980394A60012180F821100021A6
:100B400080F82010416B01B188472046BDE8F09F36
:100B50008000024008040240806B7047064810B5D0
:100B60004FF0FF31C16000220261C160C26000F03D
:100B70000BFA002010BD00000010024070B50446C2
:100B800000F0C2F90546601C02D004480078044415
:100B900000F0BAF9401BA042FAD370BD0800002053
:100BA0002DE9F047054626480F460126017E01291A
:100BB0000FD00121814601762868DFF888804CF249
:100BC0005034022808D0A2462046FFF7E5FDA8B120
:100BD00031E00220BDE8F0872046FFF7DDFD08BBCD
:100BE0000120FFF779FD2046FFF7D6FDD8F8101059
:100BF000064621F00401C8F810101CE04FF0FF3049
:100C00003860AC6811E02046FFF778FD5046FFF7EA
:100C1000C3FDD8F81010060021F00201C8F810102A
:100C200001D03C6007E004F50064D5E9020100EB67
:100C3000C120A042E7D8002189F818103046C9E742
:100C4000D0140020002002400348016941F08001D7
:100C50000161002070470000002002402DE9F05F94
:100C600007461C4888460024017E15461E46012979
:100C700009D00121814601764CF2503A5046FFF7E7
:100C80008BFD18B122E00220BDE8F09F012F02D0B9
:100C9000022F00D00427D346DFF83CA022012846CB
:100CA0003146FFF7BBFA81B208EB4400FFF738FD8D
:100CB0005846FFF771FDDAF8102022F00102CAF859
:100CC000102018B9641CE4B2BC42E7D3002289F8B2
:100CD0001820D9E7D0140020002002400649002047
:100CE0000A69120607D5054A4A60054A4A60096939
:100CF000090600D501207047002002402301674506
:100D0000AB89EFCD2DE9F84FDFF8C891002409F148
:100D1000040A0AF1040B23460F270BF1040ED1E05D
:100D20000125A54006EA0502AA4276D1DFF8A8C14E
:100D30004E68A6EB0C0866452BD00DDC032E34D094
:100D400005DC36B3012E19D0022E2FD11BE0112E57
:100D500016D0122E2AD119E0B8F5881F19D006DC5A
:100D6000B8F5803F15D0B8F5801F1FD111E0B8F558
:100D7000001F0ED0B8F5041F18D10AE0CB6815E0AB
:100D8000CB681B1D12E0CB6808330FE0CB680C3337
:100D90000CE08B682BB1012B4FF0080303D04561A9
:100DA00004E0042302E0056100E00023FF2A01D8EB
:100DB000064601E000F104064FEA840501D9A5F1D9
:100DC0002005D6F8008007FA05FC28EA0C0803FA8B
:100DD00005F548EA0508C6F800804D68ED0070D5B5
:100DE0003E4DAE6946F00106AE61AD6924F00306E2
:100DF00005F0010500953A4D06EB050CDCF80850AE
:100E0000A607360F07FA06F825EA0805DFF8D480AA
:100E1000404503D14FF0000825E052E0DFF8C880DC
:100E2000404502D14FF001081DE0DFF8C080404589
:100E300002D14FF0020816E0DFF8B480404502D13D
:100E40004FF003080FE0DFF8AC80404502D14FF0CF
:100E5000040808E0DFF8A080404502D14FF0050803
:100E600001E04FF0060808FA06F848EA0508CCF851
:100E700008804D68D9F80060ED034D4601D5164352
:100E800000E096432E604D68DAF80060AD035546E9
:100E900001D5164300E096432E604D68DBF80060F4
:100EA000ED025D4601D5164300E096432E604D6885
:100EB000DEF80060AD02754601D5164300E09643AA
:100EC0002E60641C0A681646E2407FF429AFBDE834
:100ED000F88F0000000401400000111000100240D3
:100EE0000000014000080140000C014000100140DA
:100EF0000014014000180140001C01400AB10161CA
:100F000070470904FBE70000014880687047000053
:100F1000080000200248816802781144816070470F
:100F200008000020074810B5016841F01001016079
:100F3000032000F077F8002000F006F800F026F813
:100F4000002010BD0020024070B50D4D04464FF446
:100F50007A712878B1FBF0F00A490968B1FBF0F02A
:100F600000F0EBFC48B9102C07D200222146501E9D
:100F700000F038F800206C6070BD012070BD0000EA
:100F80000800002014000020704700000C4808B53D
:100F9000816941F001018161816901F001010091E4
:100FA000C16941F08051C161C06900F0805000907A
:100FB0000448416821F0E06141F00071416008BDE2
:100FC0000010024000000140002809DB00F01F0271
:100FD000012191404009800000F1E020C0F800119B
:100FE00070470000F0B40E4B1B680C46C3F302239D
:100FF000C3F10705042D00D90425191D072901D2C5
:10100000002300E0DB1E012606FA05F1491E2140FF
:1010100099409E40761E16403143F0BC01F0C3B9A2
:101020000CED00E0064900F0070208684FF6FF03E8
:10103000184040EA0220034A10430860704700004D
:101040000CED00E00000FA052DE9F0470F46050021
:1010500061D0434E306800F00700B84209D23068D2
:1010600020F0070038433060306800F00700B842D5
:1010700051D128683B4C810712D5400703D56068E1
:1010800040F4E06060602878000703D5606840F4B1
:10109000605060606068A96820F0F00008436060FC
:1010A0002878C00728D06868012810D02168022855
:1010B00010D0890700292EDA616821F0030101436D
:1010C0006160FFF721FF804641F288390DE0216819
:1010D0008903EFE78901EDE7FFF716FFA0EB0801B1
:1010E000494502D90320BDE8F0876068696800F0CF
:1010F0000C00B0EB810FEFD1306800F00700B84270
:101100000BD9306820F0070038433060306800F0B9
:101110000700B84201D00120E5E72878400705D54F
:101120006068E96820F4E0600843606028780007A0
:1011300006D56068296920F4605040EAC10060600B
:1011400000F038F86168084AC1F30311515CC840E7
:101150000649086006480068FFF7F6FE0020C2E76F
:101160000020024000100240E42700081400002084
:101170000C0000200448054900684968044AC1F38E
:101180000221515CC840704714000020001002404A
:10119000F42700080448054900684968044AC1F377
:1011A000C221515CC840704714000020001002406A
:1011B000F427000812A185B00FC98DE80F0014A014
:1011C000144A006804905168134801F00C03042B82
:1011D00010D0082B0ED1C1F38343C9031DF80300BF
:1011E0000AD5516804AAC1F34041515C0A4A5043F0
:1011F000B0FBF1F005B0704708494843FAE700003A
:1012000002030405060708090A0B0C0D0E0F101047
:10121000010200000010024000127A0000093D00A7
:101220002DE9F84F040070D02078C04DC00749D098
:101230006868C0F38100012807D06868C0F38100A6
:10124000022809D16868C00306D52868800339D50B
:1012500060680028E7D035E06068B0F5803F0BD0CB
:1012600010B1B0F5A02F11D0286820F4803028608C
:10127000286820F4802002E0286840F4803028604C
:10128000606890B1FFF740FE06460AE0286840F427
:1012900080202860F0E700BFFFF736FE801B64283F
:1012A00073D828688003F7D50CE0FFF72DFE0646BB
:1012B00005E000BFFFF728FE801B6428F0D82868EF
:1012C0008003F7D420789A4E80074FF001094FF041
:1012D000000839D5686810F00C0F07D06868C0F3B3
:1012E0008100022809D16868C00306D428688007F5
:1012F00014D52069012808D110E02069B0B1C6F8E2
:101300000090FFF701FE074605E00AE1FFF7FCFD4C
:10131000C01B0228C4D828688007F7D528686169EF
:1013200020F0F80040EAC10028600DE0C6F8008017
:10133000FFF7EAFD074604E0FFF7E6FDC01B0228C1
:1013400023D828688007F7D4207800072CD579485F
:10135000A169D9B1C0F80090FFF7D6FD074604E0B7
:10136000FFF7D2FDC01B02280FD8686A8007F7D5A7
:1013700071484FF4FA510068B0FBF1F0009000BFE3
:101380000098411E0091FAD20EE080E0C0F8008083
:10139000FFF7BAFD074604E0FFF7B6FDC01B0228C1
:1013A00075D8686A8007F7D42078400760D5E86967
:1013B0000027C00008D4E86940F08050E861E8697F
:1013C000012700F0805000905C480168C90513D4E3
:1013D0000168834641F480710160FFF795FD824604
:1013E00006E000BFFFF790FDA0EB0A0064284ED88E
:1013F000DBF80000C005F5D5E06801280AD008B187
:10140000052813D0286A20F001002862286A20F0FD
:10141000040002E0286A40F001002862E06841F21E
:10142000883B98B1FFF770FD82460BE0286A40F0D8
:1014300004002862EEE700BFFFF766FDA0EB0A019B
:1014400059455AD8286A8007F6D50CE0FFF75CFDAD
:10145000824605E0FFF758FDA0EB0A0159454CD83C
:10146000286A8007F6D41FB1E86920F08050E8614F
:10147000E06988B36968C1F38101022944D0022878
:10148000C6F8608004D0FFF73FFD044638E034E042
:10149000FFF73AFD074604E0FFF736FDC01B0228C0
:1014A0002BD828688001F7D4206AB0F5803F05D199
:1014B0006868A16820F4003008436860D4E9080136
:1014C0000843696821F4741108436860C6F86090A5
:1014D000FFF71AFD044606E025E000BFFFF714FD04
:1014E000001B022809D828688001F7D51BE000BF3F
:1014F000FFF70AFD001B022802D90320BDE8F88F80
:1015000028688001F4D40EE00128F7D06868226AC8
:1015100000F48031914204D1616A00F47010884275
:1015200001D00120EAE70020E8E7000000100240B7
:10153000000042428004424214000020007000403B
:101540007047000038B50446006842688168C943A6
:101550004B0606D5CB0704D1D3435B0601D4216CDF
:1015600005E08B0708D4D3431B0605D4616C01B09A
:101570002046BDE8304008478B0601D54B0646D4CF
:10158000D3439B0643D44B060AD494F85130032B23
:101590003ED0636D43F004036365C36883680093C2
:1015A000890609D4616D41F001016165816800918E
:1015B000016821F040010160606D002827D020689B
:1015C000416821F0E0014160012084F8510090075A
:1015D00022D02068416821F003014160104DE06C89
:1015E00040B14563E06CFFF71FFA18B1606D40F041
:1015F00040006065A06C002809D04563A06CFFF72F
:1016000013FA002803D0606D40F04000606538BDDB
:10161000C1688068009038BD2046FFF791FF38BD53
:10162000451F000870B5040009D0606A002540B16C
:1016300025616561A56294F8510040B10CE001207C
:1016400070BD6068B0F5827FF4D0E561F2E784F8A0
:101650005050204600F040F8022084F851002068E5
:10166000016821F040010160A088218900F48270A6
:1016700001F404410843A18901F400610843217C7D
:1016800001F002010843217D01F001010843218B93
:1016900001F400710843217F01F03801084394F8F8
:1016A000201001F080010843218D01F4005108430E
:1016B00021680860A069042101EA1040216848609F
:1016C0002068C16921F40061C1616565012084F869
:1016D0005100002070BD000030B585B0002400949A
:1016E0000194029403940068184988422CD1184848
:1016F000816941F480518161816901F480510491D3
:10170000816941F0040181618069124D00F004009B
:101710000490A020009002200190032003906946CD
:101720002846FFF7EFFA4020CDE90004012002909F
:1017300069462846FFF7E6FA002211462320FFF704
:1017400051FC2320FFF740FC05B030BD00300140C4
:1017500000100240000801402DE9F84F044690F8BF
:10176000500000270A9E1D4692468B464FF0010905
:1017700001280ED0012084F85000FFF7C5FB8046F9
:1017800094F85100616801280CD0B1F5827F07D12F
:1017900002E00220BDE8F88FA16809B9042801D051
:1017A0000227C2E0BBF1000F27D0BAF1000F24D00E
:1017B0001DB394F85100042802D0052084F851008C
:1017C00000206065C4F838A0E587A587C4F830B06C
:1017D000E586A5862064606420680168490603D414
:1017E000016841F040010160E068B0F5006F606899
:1017F00005D0E8B3012D46D07FE0012795E008B180
:10180000012D39D1206B21680088C860206B801CB5
:101810002063E08E401EE0862EE020688168890704
:101820000FD5E18E69B1B9F1010F0AD1216B098899
:10183000C160206B801C2063E08E401EE0864FF06C
:10184000000920688168C9070CD0E18F51B1C068D8
:10185000A16B0880A06B801CA063E08F401EE08716
:101860004FF00109FFF750FBA0EB0800B04200E089
:1018700009E001D3701C50D1E08E0028CDD1E08F5B
:101880000028CAD13FE0206B216800780873206BE4
:10189000401C2063E08E401EE0862EE020688168B8
:1018A00089070FD5E18E69B1B9F1010F0AD1216B1A
:1018B00009780173206B401C2063E08E401EE08697
:1018C0004FF0000920688168C9070CD0E18F51B141
:1018D000C068A16B0870A06B401CA063E08F401E25
:1018E000E0874FF00109FFF70FFBA0EB0800B042C3
:1018F00002D3701C01D010E07EB1E08E0028CDD163
:10190000E08F0028CAD142463146204600F022FB33
:1019100028B101272020606507E0032705E0A068C3
:1019200018B92068C16880680090012084F85100CF
:10193000002084F8500038462CE710B5401EB0F166
:10194000807F01D3012010BD4FF0E02460610F21A2
:10195000601700F028FD0020A06107202061002012
:1019600010BD704770B504460068C16821F4F0717D
:10197000C1602068416921F001014161206B0128AB
:1019800004D12068C16821F01001C160206841695C
:101990004FF0100609064FF000050FD5416921F000
:1019A00080014161606B48B14563606BFFF718F8D7
:1019B00020B1606BFFF7D0F820281ED02068416965
:1019C00049060FD5416921F040014161A06B48B142
:1019D0004563A06BFFF704F820B1A06BFFF7BCF8DC
:1019E00020280AD0E584E5852564202084F83E007F
:1019F00084F83D002563002070BD2664032070BD7F
:101A0000704710F83D1F407808437047F8B50268EA
:101A100004461068D168536910F00F0F4FF00005AD
:101A200053D003F0010601F4907737435FD0C2072B
:101A300005D0CA0503D5226C42F001022264420798
:101A400005D5DA0703D0226C42F002022264820735
:101A500005D5DA0703D0226C42F0040222640207A3
:101A600007D501F02002324303D0226C42F0080275
:101A70002264226C002A34D0800604D5880602D560
:101A8000204600F08EFB20684069216CC0F3801076
:101A9000090700D430B3204600F06BFB2068416991
:101AA00049061BD5416921F040014161A06BA8B1F5
:101AB00058494163A06BFEF7B7FF002811D0A06B17
:101AC000416B01B0BDE8F040084783060FD58B0697
:101AD0000DD52046BDE8F84000F063BB2046FFF777
:101AE0008FFFF8BD2046FFF78BFF2564F8BD266BFE
:101AF0002023012E52D1C60650D5CE064ED51068F1
:101B000050680090506940062AD5A16B086840686B
:101B10000004000CEAD0A68D8642E7D9E0858869EA
:101B2000202818D0D06820F48070D06020684169E7
:101B300021F0010141612068416921F040014161CA
:101B400084F83E3025632068C16821F01001C1602F
:101B5000A06BFEF745FFA08DE18D401A81B219E020
:101B6000A08DE18D401A81B2E08D0028BED0002901
:101B7000BCD0D06820F49070D0602068426922F018
:101B80000102426184F83E3025632068C26822F079
:101B90001002C2602046FFF7E4FEF8BD05062BD513
:101BA0000D0629D594F83D002128F6D1A068B0F59E
:101BB000805F01D12069B0B1206A411C2162216897
:101BC00000784860E08C401E0004000CE084E4D102
:101BD0002068C16821F08001C1602068C16841F0BF
:101BE0004001C160F8BD206A0088C0F30800506061
:101BF000206A801C2062E5E74006F3D54806F1D54F
:101C0000D168204621F04001D16084F83D3000F0D9
:101C1000D0F8F8BD6321000870B5040004D094F832
:101C20003D00002510B106E0012070BD84F83C5055
:101C3000204600F023F8242084F83D002068C16885
:101C400021F40051C160204600F006FB20680169C4
:101C500021F4904101612068416921F02A0141612C
:101C60002068C16841F40051C1602564202084F8D7
:101C70003D0084F83E00002070BD000030B585B006
:101C80000024009401940294039400681849884247
:101C90002CD11848816941F480418161816901F446
:101CA00080410491816941F0040181618069124D94
:101CB00000F0040004904FF40070009002200190A6
:101CC0000320039069462846FFF71CF82815CDE944
:101CD0000004694628460294FFF714F80022012107
:101CE0002520FFF77FF92520FFF76EF905B030BDFD
:101CF0000038014000100240000801407047000019
:101D00002DE9F843044690F83D001F4616460D465F
:101D100020284CD1C5B1BEB194F83C00012846D072
:101D2000012084F83C004FF00008C4F840802120D6
:101D300084F83D00FFF7E8F8A6848146E684A068B1
:101D4000B0F5805F03D004E00120BDE8F88320698E
:101D500028B12E465FF0000584F83C800EE0002696
:101D6000FAE78021204600F0D3FAA0B9AEB116F808
:101D7000010B21684860E08C401EE084E08C4B46FB
:101D80004FF0000200970028EBD14FF040012046B1
:101D900000F0BEFA30B10320D7E735F8020BC0F3EC
:101DA0000800E6E7202084F83D000020CDE702206F
:101DB000CBE77047FEE700002DE9F04385B0002532
:101DC00026480095019502950395816941F04001EF
:101DD0008161816901F040010491816941F0100144
:101DE0008161816901F010010491816941F0040170
:101DF000816180691A4F00F0040004900122602183
:101E00003846FFF77BF8DFF85C800022102140465F
:101E1000FFF774F8DFF85090002220214846FFF7C2
:101E20006DF801246020CDE900040226CDE90246C8
:101E300069463846FEF766FF10208DE87100694656
:101E40004046FEF75FFF20208DE871006946484656
:101E5000FEF758FF05B0BDE8F08300000010024017
:101E60000018014000080140001001400F4810B563
:101E70000D4901604FF48271416000218160C160B1
:101E80004FF400720161C0E905121022C0E9072178
:101E9000416281620A21C162FFF7C4FB002801D0C0
:101EA00072B6FEE710BD0000003001403014002083
:101EB0000E4810B50C4901604FF4E131416000213A
:101EC00081600C22C160C0E904128161C161FFF729
:101ED000A3FE08B172B6FEE703480C30016841F07A
:101EE0002001016010BD000000380140881400206E
:101EF000FEE7FEE7704701884288914201D1002049
:101F000070474A1C031D92B20280C95C40F2DC5348
:101F10009A4201D3002202800846704710B54288D9
:101F2000041D531C43801155418840F2DC529142FC
:101F300001D30021418010BD0148FFF703BB000021
:101F40003014002010B5406A0021C187C186FFF718
:101F5000F7FA10BD38B50B460092044600228021E6
:101F600000F018F8002804D0606D40F02000606593
:101F7000032038BD01B582B064200090012301AA7E
:101F800002A90348FFF7E8FB9DF804000EBD00001E
:101F9000301400202DE9F8431E4691468846044639
:101FA000089DFEF7B1FF401B351AFEF7ADFF07464F
:101FB00025480068C0F3CB30684338E0701C37D048
:101FC000FEF7A2FFC01BA84203D215B1009860B370
:101FD0002CE02068416821F0E00141606068B0F5C4
:101FE000827F0BD1A068B0F5004F02D0B0F5806FB2
:101FF00004D12068016821F040010160A06AB0F5B9
:10200000005F09D12068016821F400510160206857
:10201000016841F400510160012084F85100002062
:1020200084F850000320BDE8F8830025401E00908E
:102030002068816838EA010004D000214945BDD1FB
:102040000020F0E70121F9E71400002070470000AC
:1020500010B5FEF75FFF0F4CB4F82C0A28B1401EF4
:102060000004000CA4F82C0A0DD094F82E0A0128C4
:1020700008D100BFFEF790FA0749002084F82E0A25
:10208000A1F8E00510BD012084F82E0A84F82F0A7B
:10209000F0E70000FA0500201800002010B590B00D
:1020A00028216846FEF72DF914210AA8FEF729F920
:1020B0000220009001200490102000240590079435
:1020C0006846FFF7ADF808B172B6FEE70F20CDE91C
:1020D0000A040C940D9400210AA80E94FEF7B4FF94
:1020E000002801D072B6FEE710B010BD70472DE990
:1020F000F0410E46054601461F46104600F01DF809
:1021000004462946384600F018F80022611C04D025
:10211000411C02D0011B012902DC0020BDE8F08136
:10212000641C21B205E06B5CB354521C491C12B212
:1021300009B28142F7DB0120F0E770B50D46064693
:10214000002406E0285DB04201D1204670BD641C29
:10215000E4B22846FEF794F8A042F3D84FF0FF30DF
:1021600070BD10B5406A0021C185C184FFF748FCED
:1021700010BD0168CA6822F49072CA6001684A6999
:1021800022F001024A61016B012904D10168CA6889
:1021900022F01002CA60202180F83E100021016365
:1021A000704708B590F83E10222901D0022008BDE2
:1021B00082684FF480539A4201D1016921B1816A4A
:1021C0009A421BD04AB10AE00268816A5268C2F39F
:1021D00008020A80816A891C08E0026972B10268FB
:1021E000526802F07F020A70816A491C8162C18DC7
:1021F000491E0904090CC18503D019E00268526820
:10220000F1E70168CA6822F02002CA600168CA6862
:1022100022F48072CA6001684A6922F001024A61B0
:10222000202180F83E10016B012903D0FFF766FDE5
:10223000002008BD002101630168CA6822F0100275
:10224000CA6001680A68D20602D50A684968009126
:10225000818DFFF786FBEBE770B5044600680169E6
:10226000E26821F44051114301612169A0680843EB
:10227000616908432168CA6841F20C639A430243CA
:10228000CA6020684169A26921F44071114341612B
:102290001E492068884202D1FEF77CFF01E0FEF76C
:1022A00069FF00EBC00101EB00126068642180004F
:1022B000B2FBF0F3B3FBF1F36FF018067343B2FB1C
:1022C000F0F5B2FBF0F605EB8305322303EB0515C1
:1022D000B5FBF1F5B6FBF1F605F0F00505EB0615DB
:1022E000B2FBF0F6B2FBF0F0B0FBF1F06FF01802C9
:1022F000504306EB800003EB0010B0FBF1F02168C7
:1023000000F00F002844886070BD000000380140D4
:102310002DE9F041984617460E460446069D1DE0FD
:10232000681C1BD02DB1FEF7EFFDA0EB0800A84202
:1023300014D92068C16821F4D071C1602068416956
:1023400021F001014161202084F83D0084F83E0025
:10235000002084F83C000320BDE8F081206800687C
:1023600036EA000004D00020B842D9D00020F3E7BC
:102370000120F9E7074810B50068C1B20648FFF729
:10238000CDFD06493220A1F82C0ABDE810400448D2
:10239000FFF73CBB0438014018000020FA0500207C
:1023A00088140020FEE70907090E002804DB00F16D
:1023B000E02080F80014704700F00F0000F1E020EA
:1023C00080F8141D7047000030B585B00546FEF753
:1023D00085FC0020049000900120CDE9010509480A
:1023E000FF24401BC00A039004A96846FEF7D8FBEF
:1023F00000B90024FEF728FC1420FEF7BFFB05B04F
:10240000204630BDFFFF070870B5054C6568FEF734
:10241000A5FB206880F30888AC46BDE870406047A3
:10242000008000082DE9F04717468946064600243B
:10243000FEF754FC0025DFF8488017E0464502D33C
:1024400044F0010411E059F8252000233146022010
:10245000FEF704FC08B144F0020459F82500316885
:10246000884201D044F00404361D6D1CBD4201D2E7
:10247000002CE3D0FEF7E8FB2046BDE8F087000023
:10248000EFFF0108FEF74EFDFFF708FEFFF794FC93
:10249000FFF7ECFCFFF70CFD12A000F071F81B48F1
:1024A00000F06EF8FEF709F900F00AF9184C194F20
:1024B000002540F2145604F2165800BF94F82F0A73
:1024C0000128FBD184F82F5AFEF77EF8A7F8E055D3
:1024D00031464046FDF7F3FE3146A01CFDF7EFFE06
:1024E000ECE700000A0D3D3D3D3D3D3D3D3D3D3DA0
:1024F0003D3D3D3D3D3D3D3D3D3D3D3D3D3D3D3D0C
:102500003D3D3D3D3D3D0A0D00000000FC2700081B
:10251000FA05002018000020C9B201E000F8011BF4
:10252000521EFBD27047000030B503460020024621
:10253000064C03E0A518AD789D54521C8A42F9DB85
:102540001978002900D1FF2030BD0000FA050020D5
:1025500031B5FF240948FFF754FAA02802D10748F3
:10256000FFF700FA4FF4FA63012269460348FFF7C8
:10257000C7FB00B90024204638BD000088140020A5
:1025800010B5FF24002201E0521C92B2815C0029A8
:10259000FAD101464FF4FA630348FFF7B1FB00B9E3
:1025A0000024204610BD00008814002010B50278D9
:1025B0000024521CD2B202708A4207D31820FFF7BF
:1025C000C7FF1820FFF7C4FFFF2402E01520FFF724
:1025D000BFFF204610BD00002DE9F05F3449354BA8
:1025E00000248878187008464FF48065C0785870C9
:1025F0004FF0010B032022460E189F18401CB6789E
:10260000521CBE7080B2AA42F6DB0A18401C9678B3
:1026100080B2084483F80264807883F80304B3F836
:1026200002049A1C46BA9946AA462846002141F25D
:1026300021074FF6FF7C12F8013B401E81EA03217F
:1026400080B200235FEA014803D587EA410189B2DD
:1026500001E00CEA41015B1CDBB2082BF2D300283D
:10266000E9D1B14201D044F00104134E3078204347
:1026700005D11248FFF7A8FE18B144F008041CB1B8
:1026800012E086F800B0FAE74F465246B81C71686F
:10269000FEF738F96420FEF771FA5146B81CFDF7D1
:1026A0000EFE7068284470602046BDE8F09F000070
:1026B000FA0500202A1000200000002000800008F9
:1026C000FEB500258DF80050334F344C3D708DF829
:1026D000045084F82A5A5AE08DF80850012102A8C3
:1026E000FFF722FF060012D0387810B1012808D079
:1026F0000DE04FF47A70FEF741FA4320FFF728FF10
:1027000005E0032101A8FFF751FF8DF800009DF8B7
:102710000800012807D0022805D0042820D0182856
:102720002DD05EBB2DE0FFF757FF10B1082808D071
:102730000AE00620FFF70CFF4FF4FA70FEF71EFACE
:1027400008E003208DF80400032101A8FFF72EFF05
:102750008DF8000094F82A0A401C84F82A0A16E032
:102760000620FFF7F5FE9620FEF708FA40F2145116
:10277000A01CFDF7A4FD0AA0FFF702FF07E0FF2061
:1027800003E0032101A8FFF711FF8DF800009DF879
:1027900000000028A0D0FEBD00000020FA050020A7
:1027A0000A0D4669726D7761726520757064617497
:1027B00065643F0A0D00000010B500290AD00878B2
:1027C000002807D005487844FDF79EFE002801D078
:1027D000002010BD0248784410BD0000A600000093
:1027E0009E00000000000000000000000102030441
:1027F000060708090000000001020304506C65612F
:1028000073652073656E642061206E657720626950
:102810006E6172792066696C6520776974682058EA
:102820006D6F64656D2070726F746F636F6C207470
:102830006F207570646174652074686520666972C4
:102840006D776172652E0A0D000000007C2900087A
:1028500000000020180000006C0100089429000806
:1028600018000020381B000088010008100100003B
:1028700043000000F8FFFFFF004040404040404060
:102880004040414141414140404040404040404043
:1028900040404040404040404005020202020202E7
:1028A0000202020202020202022020202020202036
:1028B000202020020202020202029090909090904A
:1028C0001010101010101010101010101010101008
:1028D000101010100202020202028888888888887C
:1028E0000808080808080808080808080808080868
:1028F0000808080802020202400000000000000070
:1029000000000000000000000000000000000000C7
:1029100000000000000000000000000000000000B7
:1029200000000000000000000000000000000000A7
:102930000000000000000000000000000000000097
:102940000000000000000000000000000000000087
:102950000000000000000000000000000000000077
:102960000000000000000000000000000000000067
:102970000000000000000000000000000000000057
:1029800000800000010000001000000000000000B6
:042990000024F4002B
:0400000508000131BD
:00000001FF
