:020000040800F2
:10000000A01C002051020008E32F0008712E0008F8
:10001000E12F00087511000871360008000000008B
:100020000000000000000000000000007531000822
:100030006112000800000000E52F00087931000877
:100040006B0200086B0200086B0200086B020008DC
:100050006B0200086B0200086B0200086B020008CC
:100060006B0200086B0200086B0200086B020008BC
:100070006B0200086B0200086B0200086B020008AC
:100080006B0200086B0200086B0200086B0200089C
:100090006B0200086B0200086B0200086B0200088C
:1000A0006B0200086B0200086B0200086B0200087C
:1000B000113200086B0200086B0200086B02000896
:1000C0006B0200086B0200086B0200082930000870
:1000D0006B020008413600086B0200086B02000842
:1000E0006B0200086B0200086B0200086B0200083C
:1000F0006B0200086B0200086B0200086B0200082C
:100100006B0200086B0200086B0200086B0200081B
:100110006B0200086B0200086B0200086B0200080B
:100120006B0200086B0200086B0200086B020008FB
:100130006B02000800000000000000006B020008D5
:100140006B0200086B0200086B0200086B020008DB
:100150006B0200086B0200086B0200086B020008CB
:100160006B0200086B0200086B0200086B020008BB
:100170006B0200086B020008000000000000000095
:100180006B02000800F002F800F053F80AA090E8B3
:10019000000C82448344AAF10107DA4501D100F042
:1001A00048F8AFF2090EBAE80F0013F0010F18BFBC
:1001B000FB1A43F001031847383900005839000092
:1001C000103A24BF78C878C1FAD8520724BF30C883
:1001D00030C144BF04680C60704700000023002455
:1001E00000250026103A28BF78C1FBD8520728BF47
:1001F00030C148BF0B607047642900F03F8173290C
:1002000000F08F82002070471FB59DE8030000F0CA
:1002100051FD00F029FC04000020002103F040FC07
:10022000401C606000F02CFB1FBD10B500F091FB7E
:1002300010BD00F0F4FB1146FFF7E6FF03F090FA63
:1002400000F00AFD03B4FFF7F0FF03BC00F0E4FE8A
:100250000948804709480047FEE7FEE7FEE7FEE75A
:10026000FEE7FEE7FEE7FEE7FEE7FEE70448054996
:10027000054A064B704700000F3200088501000850
:10028000A0160020A01C0020A0180020A01800200C
:1002900053EA020C00F069802DE9F04B4FF00006A4
:1002A000002B1FBFB3FA83F503FA05F424FA05F611
:1002B0005E4012BF1643B2FA82F502FA05F4C5F1A8
:1002C00020051EBF22FA05FC44EA0C04203556EA3C
:1002D000044C4FEA144418BF641C4FF000084FF060
:1002E0000009904271EB030C39D3002919BFB1FA10
:1002F00081F701FA07F6B0FA80F700FA07F6C7F1BE
:1003000020071EBF20FA07FC46EA0C062037B6FB82
:10031000F4FCA7EB0507103F07F01F0BCBF12006FD
:100320000CFA0BFB2CFA06F644BFB3460026202F2E
:10033000A4BF5E464FF0000B5BEA060C08BF4FF00F
:10034000010B19EB0B09ABFB027C48EB0608C01B49
:1003500006FB02CC0BFB03CC71EB0C01C1E70B4697
:10036000024641464846BDE8F08B13B54FF0000009
:100370004FF00001AFF30080BDE81C407047000063
:100380000FB4044910B503AA029800F0CFF910BCCD
:100390005DF814FB941500200FB41CB5074B06AA9A
:1003A0007B4469460090059800F091F90020694669
:1003B00000F0A0F91CBC5DF814FB00005103000024
:1003C0002DE9F0410E460446002020622046E168F7
:1003D000884730B3252805D0D4E901219047206A09
:1003E000401CF2E7E168204600278847050018D046
:1003F000A5F14100192802D820354FF40067324694
:10040000294620462760FFF7F7FE40B1012804D0B7
:10041000F61D26F007060836D8E7361DD6E728462B
:10042000DAE7206ABDE8F08170B50C460546012A7E
:1004300005D02878800600D5EA69002302E0012370
:1004400005E05B1C934202D2E05C0028F9D1A86968
:10045000E618C01AA861286A184428622846AFF333
:10046000008004E0D5E9012114F8010B9047B44263
:10047000F8D32846AFF3008070BD00002DE9F041AD
:100480000646002410687529314616A510D0AFF332
:100490000080002802DA404213A507E031688A078D
:1004A00001D512A502E0490704D511A5012401E0F8
:1004B000AFF3008000210A2206F1240709E0B0FB17
:1004C000F2FCB0FBF2F302FB1C003030785418460B
:1004D000491C0028F3D123462A463046BDE8F041A6
:1004E00000F096B8000000002D0000002B00000076
:1004F0002000000070B5064600F086F80468054646
:1005000030460A22002100F023F92C6070BD30B57E
:1005100005460B462A4613F8014B12F8010B08B1A9
:10052000A042F8D01CB1002802D06D1CF1E728468B
:1005300030BD10B5431C02E010F8011B71B18107FA
:10054000FAD14FF0013202C88C1A8C4314EAC2115E
:10055000F9D0C01A0A0603D0C01E10BDC01A10BDC3
:100560000A0401D0801E10BD0902FCD0401E10BD3F
:100570004FF000020429C0F0128010F0030C00F0CC
:100580001B80CCF1040CBCF1020F18BF00F8012B4A
:10059000A8BF20F8022BA1EB0C0100F00DB85FEA18
:1005A000C17C24BF00F8012B00F8012B48BF00F8E4
:1005B000012B70474FF0000200B513469446964653
:1005C000203922BFA0E80C50A0E80C50B1F1200166
:1005D000BFF4F7AF090728BFA0E80C5048BF0CC014
:1005E0005DF804EB890028BF40F8042B08BF704772
:1005F00048BF20F8022B11F0804F18BF00F8012BE4
:100600007047704770477047004870473C1600209D
:100610002DE9F0470D4699469246044600F124081C
:100620000168880604D5E06921F01001216000E02E
:100630000120A84201DD471B00E00027A1697A19CB
:1006400002EB0900081AA0612078C00602D42046F7
:10065000AFF30080002608E0D4E901211AF8060073
:100660009047206A401C761C20624E45F4DB2078BF
:10067000C0060AD52046AFF3008006E0D4E9012188
:1006800030209047206A401C2062381EA7F10107E5
:10069000F4DC07E0D4E9012118F805009047206A4E
:1006A000401C2062281EA5F10105F3DC2046AFF3B3
:1006B00000802078000602D50220BDE8F0870120E6
:1006C000FBE7000001694A1C02610878704700B529
:1006D0008FB0CDE901310021059105497944CDE97B
:1006E000031011466846FFF76BFE0FB000BD000017
:1006F000E5FFFFFF0A6802F8010B0A60704710B5BA
:10070000436913B1AFF3008001E0FFF78DFE0120D4
:1007100010BD127800F124010A7000224A700122F3
:10072000EDE711684FF0FF32E9E70000074B70B5C5
:100730000D467B44FFF7CBFF0446284600F09BF8AC
:1007400010B14FF0FF3070BD204670BD1330000077
:100750002DE9F04791460F4680460446002614F8DE
:10076000015B2DB100F030F80068405DC007F6D1A4
:100770002B2D02D02D2D18D0641E4A463946204616
:1007800000F02AF827B13968A14201D1C7F80080EA
:100790004FF0020471050BD54042002803DDFFF73E
:1007A00033FF0460A007BDE8F08746F48066E4E705
:1007B0000028F8DAFFF728FF04606FF00040F2E746
:1007C000004870473C16002010B500F04DF9001DA0
:1007D00010BD00BFCD3200002DE9F05F8246154606
:1007E0008B4600270AF10104B9460078302801D071
:1007F0009DB113E014F8010B0127782803D0582885
:1008000001D045B10AE00DB1102D07D1002714F831
:10081000010B102502E0082500E00A250026B0465D
:100820000EE005FB080005FB06F101271FFA80F822
:1008300001EB1046B6F5803F00D3B94614F8010B22
:10084000294600F03CF90028EBDABBF1000F05D097
:100850000FB1641E00E05446CBF80040B9F1000F20
:1008600006D0FFF7D1FE02210160C81EBDE8F09F4F
:1008700048EA0640FAE7007B00F08000704700007D
:1008800010B542485421FFF795FE41485421FFF727
:1008900091FE40485421FFF78DFE3F493B483C4ABA
:1008A0003F4B08603D490A603A491960531C036593
:1008B000481C1065012008653B48344A39A178443A
:1008C00000F02EF920B9384878440A3800F0CDF904
:1008D00037482F4A35A1784400F022F920B934482E
:1008E00078440A3800F0C1F932482A4A2FA17844E6
:1008F00000F016F920B92F4878440A3800F0B5F90D
:1009000040232248DC000021224600F0E6F820B116
:1009100025487844543800F0A8F91D482246402361
:10092000002100F0DAF820B121487844543800F072
:100930009CF9184822461023002100F0CEF8002828
:1009400006D01C487844BDE81040563800F08DB9F8
:1009500010BD104870B5006D20F001040B4800F088
:1009600055F90B4800F052F90A4800F04FF909E038
:10097000206D20F00105204600F048F9204600F0E7
:1009800077F82C46002CF3D170BD000040150020F4
:1009900094150020E8150020180000201C000020FD
:1009A00020000020720000002232000077000000CA
:1009B0000E320000FA3100000EB5CDE90001FFF75C
:1009C000B8FD029069460120ABBE0EBD08B5694670
:1009D00000900220ABBE08BD1FB58DE80700694638
:1009E0000520ABBE04B010BD1FB58DE80F006946F1
:1009F0000620ABBEF6E708B5694600900920ABBEFD
:100A000008BD1CB5CDE9000169460A20ABBE1CBD7E
:100A1000704708B5694600900C20ABBE08BD75460E
:100A2000FFF7CEFEAE4605006946534620F00700AC
:100A3000854618B020B5FFF719FCBDE820404FF0FF
:100A400000064FF000074FF000084FF0000B21F0B8
:100A50000701AC46ACE8C009ACE8C009ACE8C00985
:100A6000ACE8C0098D467047004870475C1600200E
:100A700070B50446051F00F001F90068002C14BF92
:100A8000446870BD002C18BFAC423CBF204664686F
:100A9000F8D301680A18AA4218BF456003D12A6832
:100AA00005461144016028684119A1421CBF6C60D1
:100AB00070BD6168696021680844286070BD3A288B
:100AC00000D2303820F02002412A01D3A2F13700B1
:100AD000884201D34FF0FF30704770B5C468A50756
:100AE00013D0650211D4B2F5807F09D0B2F5007F32
:100AF00006D0B2F5806F08D1012300F1240106E091
:100B00005D1E6FF07F46B54201D3012070BD0161CB
:100B1000C361416024F470611143C160002070BD65
:100B20002DE9F0410C4607461646104600F06EF8D7
:100B30002078611C61280AD0722802D077283CD125
:100B400002E00125002405E00225042402E0082437
:100B500048F2020511F8010B2B2806D0622809D0B3
:100B600011F8010C74280AD00BE045F0030544F09D
:100B70000204EFE745F0040544F00104EAE744F01D
:100B8000100438462146FFF717FF411C15D00021FD
:100B9000316171604FF40071F560F161706120079F
:100BA00004D530460222002100F0E2F8306D40F01A
:100BB000010030653046BDE8F0810020FBE72DE9FB
:100BC000F0410D460646104C206DC10704D0410887
:100BD00004D020F00104F7E722460EE0542000F094
:100BE00098F807000ED0206D47F00101084354210A
:100BF00020653846FFF7DEFC3A4629463046BDE818
:100C0000F0418DE70020D6E7401500202DE9F047A0
:100C100004464FF000094FF0FF37C568D4E9048659
:100C2000A80707D0204600F053F93046FFF7CEFE64
:100C3000002802DA3846BDE8F087280502D540468C
:100C4000FFF716FF4C212046FFF7B4FC206D20F083
:100C5000010020654846EEE710B50446AFF300807A
:100C60002046BDE81040FFF7EDBA10B500F07AF964
:100C7000BDE8104000F070B97047000000487047B0
:100C800044160020704770477047704738B50446D7
:100C90000A4600206946AFF30080002808BF38BD2F
:100CA00002460099204600F0C4F9012038BD012019
:100CB00000F013BAF8B5AFF30080054600200C46EB
:100CC000102000BF0646A819A0420DD93246694639
:100CD0000020AFF30080070008BF00F0FEF9009885
:100CE000A04218BF0546C419FFF7C8FF05600746B4
:100CF000F01D20F007004619284600F093F9B44291
:100D000008BFF8BDA21B31463868BDE8F84000F0C6
:100D100090B970B50646FFF7B1FF056806F10B0004
:100D200020F00704B4429CBF002070BD2B466A68C7
:100D3000BAB11068A04210D304F1080188423CBF48
:100D40005068586007D35168101941601168091B39
:100D5000016058601460101D70BD13465268002A6F
:100D6000E7D121462846FFF791FF0028DED170BD6C
:100D70002DE9F041044616460D464769007B800781
:100D80002ED03846FFF737FE50BB3EB3012E02D0BF
:100D9000022E25D104E0204600F065F905441DE04F
:100DA0003846FFF736FEE168002841F01001E160A7
:100DB00005DA204600F058F80120BDE8F081C903AB
:100DC0000BD56268E16A914200D81146A2691144CC
:100DD0002269891A814200DD08460544002D01DAA6
:100DE0000220EAE7E16A6068E268814206D2910384
:100DF000E06203D522F4003141F01002A669002719
:100E0000AE4213DCE16A814201D90B4600E00346A1
:100E100003EB060C2369ACEB030CAC4506DD814209
:100E200001D98C4600E084469C4505D1A760276027
:100E300042F02000A5620DE0AD1BE669AE1B8142C9
:100E4000A66000D90846C01A281A206058196060A8
:100E500022F0200003490840E060002084F8487038
:100E6000ABE70000BFCFD7FFC16821F4001141F00C
:100E70008001C16000218160016070472DE9F04769
:100E8000814614460E464FF0FF383248D568576900
:100E9000054209D03846A169FFF7B3FD002811DBF0
:100EA0002C48C0430540E5602B463246494638464B
:100EB000FFF792FDA16920F00042B21A1144002808
:100EC000A16103D02046FFF7CFFF4046BDE8F08781
:100ED00070B504460569C06A6168884200D8084652
:100EE000E16821F42011E160C90312D5A84208D0BD
:100EF0002246411B2846FFF7C1FF10B14FF0FF30DB
:100F000070BD0020E562C4E90150E06820F4803043
:100F1000E060002070BD10B50446C06820F02000DD
:100F2000E060A16AA06988420DD02046FFF7D0FF9B
:100F3000E06820F4405040F01000E060A06AA0613A
:100F40002069E062606044F24001E0688843E0604C
:100F500010BD000010000200002801D000F05CB8B5
:100F60007047000010B5014602A000F09DF8012076
:100F700010BD000053494752545245443A2052652F
:100F80006469726563743A2063616E2774206F70C0
:100F9000656E3A20000000004FF0013C50F8042B31
:100FA00051F8043B9A4221D1A2EB0C03934313EA7C
:100FB000CC1317D150F8042B51F8043B9A4215D1A9
:100FC000A2EB0C03934313EACC130BD150F8042B80
:100FD00051F8043B9A4209D1A2EB0C03934313EA64
:100FE000CC13DBD04FF00000704700BFD01A01BA1D
:100FF000B1FA81F101F0180122FA01F0CB40C1F100
:101000002001DBB2C0B2C01A2CFA01F3D11A91430D
:1010100011EAC311E6D1704701491820ABBEFEE7C3
:101020002600020000210160C0E901107047102075
:101030007047034640688C46002818BF88423CBF72
:1010400003464068F8D318681844884207D00CF16A
:10105000030020F00700001D411A521A0146081D26
:101060000A60FFF705BD10B50146C268900703D0BE
:10107000900607D5886A0AE0FFF7C6FA01210160E9
:10108000881E10BD8B69486818440B69C01A91F816
:1010900048301BB191F84910401A10BD1103FCD51E
:1010A0000028FADD401E10BD70B505460C460A202A
:1010B00000E06D1C00F018F835B128780028F8D150
:1010C00002E0641C00F010F814B120780028F8D178
:1010D000BDE870400A2000F007B810B500F00CF829
:1010E000BDE81040FFF738BF08B569468DF800002D
:1010F0000320ABBE08BD000010B5012805D00021BB
:1011000003A0FFF7D1FF012010BD09A1F8E70000FF
:1011100053494752544D454D3A204F7574206F66E0
:101120002068656170206D656D6F72790000000048
:101130003A2048656170206D656D6F727920636F2C
:10114000727275707465640030B5094C04F2E45530
:1011500008E0074801F047FFB4F8E0154855491C7E
:10116000A4F8E015208861888842F2D130BD0000E3
:1011700024000020FEE700002DE9F0438BB00A2296
:101180000021684602F044FB2D4C2BA1A01CFFF768
:10119000BEF904F2165780B1292328226946A01C03
:1011A00002F0D5F86846FFF7A5F96422394600F049
:1011B000B3F9394623A0FFF7E3F823A1A01CFFF7FA
:1011C000A6F970B3292328226946A01C02F0BFF8B3
:1011D0006846FFF78FF9054600264FF480684FF404
:1011E00080791AE042463946284600F095F90A20EF
:1011F00000F0BCFA4A463946284602F075FA0A2041
:1012000000F0B4FA05F580652A4610A103A8FFF79F
:10121000C3F803A802F030FB761C94F82A0AB04207
:10122000E0DC0DA1A01CFFF772F908B102F04EFA44
:101230000BB00120BDE8F08352414444000000009F
:101240000606002025730000555000004164643DEF
:1012500025640D09000000004A554D5000000000B3
:10126000704770B500240A25200300F02FF9641C94
:10127000A4B2322000F07AFAAC42F5D370BD00007F
:10128000002229B101291FD0022920D04FF4407239
:1012900010490B6823F440730B600B6813430B6019
:1012A0000A6822F0F8020A600A68F82393FAA3F3A6
:1012B000B3FA83F3984040F0020002430A600868E2
:1012C00040F48030086070474FF48072E0E74FF4DC
:1012D0000072DDE7103C02401348016889050FD514
:1012E000016821F400710160016841F4006101604E
:1012F000016821F400610160016841F4007101603E
:10130000016849050FD5016821F480610160016819
:1013100041F480510160016821F48051016001684D
:1013200041F4806101607047003C024008490A684E
:1013300022F440720A600A6842F004020A600A68F5
:101340004FF4803343EA002002430A6070470000F4
:10135000103C0240064A136823F44073136013687C
:101360001360136843F001031360017070470000BD
:10137000103C0240094910B50C6824F440740C601C
:101380000C6844F440740C600C6844F001040C6078
:101390000260BFF36F8F436010BD0000103C02403D
:1013A000074A136823F440731360136843F480738F
:1013B0001360136843F0010313600180704700005D
:1013C000103C0240074A136823F44073136013680B
:1013D00043F400731360136843F00103136001606A
:1013E00070470000103C024017490868C2061748C1
:1013F00005D5C26942F00802C26110220A600A687B
:10140000920605D5C26942F00402C26120220A6038
:101410000A68520605D5C26942F00202C261402242
:101420000A600A68120605D5C26942F00102C2616B
:1014300080220A600A68920705D5C26942F010024C
:10144000C2610220086070470C3C02401C11002061
:1014500070B5114904460020C86100F08DFB0646B6
:101460000E4D09E0601C07D024B100F085FB801B05
:10147000A04201D9032070BD2868C003F2D42868B7
:10148000C00701D001202860286810F0F200F2D0D7
:10149000FFF7AAFF012070BD1C1100200C3C024088
:1014A00010B5094C00222021204600F05FFB0620E9
:1014B00001F0D8FD01222021204600F057FBBDE8B5
:1014C0001040012001F0CEBD0008024070B5044676
:1014D000FFF7E6FF0F4D00222021284600F046FBD3
:1014E000D82001F0BFFDC4F3074001F0BBFDC4F3F9
:1014F000072001F0B7FDE0B201F0B4FD0122202188
:10150000284600F033FB012000F030F9BDE87040C0
:1015100000F02EB8000802402DE9F041134F1446A8
:101520000D46064600222021384600F01FFB03200E
:1015300001F098FDC6F3074001F094FDC6F30720C3
:1015400001F090FDF0B201F08DFD04E0002001F00B
:1015500089FD05F8010B641EA4B2F7D23846BDE838
:10156000F0410122202100F001BB000000080240F0
:1015700070B56FF07044012000F0F8F80B4D0022B8
:101580002021284600F0F2FAD82001F06BFD00205F
:1015900001F068FD641EC00701D0002CF7D1284679
:1015A000BDE870400122202100F0E0BA00080240AE
:1015B0002DE9F04107460E461446C8B201194FF412
:1015C0008078414501D8394627E0C0F580752A4624
:1015D0003946304600F026F8012000F0C7F8601BBD
:1015E000C11700EB1161C1F30F242E443D4421F0DB
:1015F000FF01471A64B90EE042462946304600F022
:1016000011F8012005F5807506F5807600F0AEF83A
:10161000641EA4B2F0D2BAB229463046BDE8F04109
:10162000AFF300802DE9F04114460D460646FFF762
:1016300037FF114F00222021384600F097FA022090
:1016400001F010FDC6F3074001F00CFDC6F30720C2
:1016500001F008FDF0B201F005FD03E0287801F08B
:1016600001FD6D1C641EA4B2F8D23846BDE8F041FD
:101670000122202100F07ABA000802402DE9F04151
:101680000446876D00F078FA064694F83500002588
:10169000022806D08020606584F834500120BDE81F
:1016A000F0812068016821F016010160206841691D
:1016B00021F080014161206C08B9A06C20B1206844
:1016C000016821F0080101602068016821F0010132
:1016D00001600CE000F050FA801B052807D920209B
:1016E0006065032084F8350084F83450D7E720681B
:1016F0000068C007EED194F85C103F208840B860C5
:10170000012084F8350084F834500020C7E790F8B1
:101710003510022903D08021416501207047052141
:1017200080F835100068016821F001010160002097
:101730007047406D704700000B4A10B54FF0FF3006
:10174000106000211160121D10601160064A103AED
:1017500010601160121D10601160121D1060116088
:1017600000F052FA002010BD2038024031B500F0E0
:1017700003FA009C0546601C02D00448007804442B
:1017800000F0FAF9401BA042FAD338BD0000002057
:101790002DE9F047044622480F46017E01290AD070
:1017A0000121804601764CF250394846FFF750FE41
:1017B000020003D02FE00220BDE8F0874FF0FF3099
:1017C00038602068174D012801D0A6681CE0207CF5
:1017D0006168FFF7ABFD4846FFF73AFE024628680E
:1017E00020F00400286014E0217C3046FFF748FD1B
:1017F0004846FFF72DFE0200286820F0FA00286016
:1018000001D03E6005E0761CD4E902100844B042E5
:10181000EAD8FFF761FD002188F818101046CBE7E1
:101820001C110020103C02400348016841F00041B7
:101830000160002070470000103C02402DE9F04795
:101840001B4E05461446307E1F468946012808D0A7
:10185000012030764CF250384046FFF7F9FD18B1C0
:1018600014E00220BDE8F0879DB1012D16D0022DB5
:1018700019D022463B464846FFF77CFD4046FFF71D
:10188000E7FD0C490A6822F001020A600021317666
:10189000E8E7E1B24846FFF75DFDEFE7A1B2484651
:1018A000FFF77EFDEAE721464846FFF78BFDE5E7B7
:1018B0001C110020103C0240074900200A68002A41
:1018C00009DA054A054B0C3A1360054B13600968A9
:1018D000002900DA01207047103C024023016745CF
:1018E000AB89EFCD2DE9F04FDFF85092002309F1DD
:1018F000040A012603250AF1040B85B00F270BF11A
:10190000040E12E1224606FA03F422407ED091F83A
:1019100004C00CF0030CBCF1010F02D0BCF1020FAB
:1019200026D1D0F80880CDF800804FEA430805FAA8
:1019300008FCCDF81080DDF8008028EA0C08CDF80E
:101940000080D1F80CC0DDF810800CFA08FCDDF83E
:1019500000804CEA080CC0F808C0D0F804C02CEA9B
:10196000040C0C79C4F300149C4044EA0C04446059
:101970000C79E443A40712D0C4684FEA430CCDF8B5
:1019800008C005FA0CFC24EA0C04D1F80880DDF844
:1019900008C008FA0CF848EA0408C0F80C800C7972
:1019A00004F00304022C16D1DC0800EB840CCDF803
:1019B00008C0DCF820C05C074FEAD46807FA08F4D6
:1019C0002CEA040C0C6904FA08F444EA0C04DDF86F
:1019D00008C0CCF8204004684FEA430805FA08FC28
:1019E00024EA0C0491F804C00CF0030C0CFA08FC77
:1019F0004CEA040CC0F800C04C6814F4403F05D019
:101A00004F4CD4F800C04CF4804C00E08CE0C4F89B
:101A100000C0246823F0030C04F480440094494C73
:101A200064440294D4F808484FEA837C4FEA1C7857
:101A300007FA08FC24EA0C04DFF80CC1604502D167
:101A40004FF0000C39E0DFF804C1604502D14FF0DF
:101A5000010C32E0DFF8F8C0604502D14FF0020C13
:101A60002BE0DFF8F0C0604502D14FF0030C24E01A
:101A7000DFF8E4C0604502D14FF0040C1DE0DFF850
:101A8000DCC0604502D14FF0050C16E0DFF8D0C095
:101A9000604502D14FF0060C0FE0DFF8C8C060458A
:101AA00002D14FF0070C08E0DFF8BCC0604502D15E
:101AB0004FF0080C01E04FF0090C0CFA08FC4CEA5E
:101AC000040C029CC4F808C8D9F80040CC46D1F8F0
:101AD000048094435FEAC83800D51443CCF8004032
:101AE000DAF80040D446D1F8048094435FEA88389D
:101AF00000D51443CCF80040DBF80040DC46D1F8B8
:101B0000048094435FEAC82800D51443CCF8004011
:101B1000DEF80040F446D1F8048094435FEA882858
:101B200000D51443CCF800405B1C0A681446DA4028
:101B30007FF4E8AE05B0BDE8F08F0000003C014046
:101B400044380240003001400000024000040240DE
:101B500000080240000C0240001002400014024045
:101B600000180240001C0240002002400AB18161BE
:101B700070470904FBE700000148806870470000D7
:101B8000000000200248816802781144816070479B
:101B9000000000200B4810B5016841F4007101609D
:101BA000016841F480610160016841F48071016065
:101BB000032000F071F8002000F006F800F026F88D
:101BC000002010BD003C024070B50D4D04464FF49E
:101BD0007A712878B1FBF0F00A490968B1FBF0F09E
:101BE00000F011FD48B9102C07D200222146501EEA
:101BF00000F032F800206C6070BD012070BD000064
:101C00000000002014000020704700000A4808B5BA
:101C1000016841F480410160006800F48040009058
:101C20000548001F016841F080510160006800F024
:101C30008050009008BD000044380240002809DBB5
:101C400000F01F02012191404009800000F1E020D6
:101C5000C0F8001170470000F0B40E4B1B680C4632
:101C6000C3F30223C3F10705042D00D90425191D70
:101C7000072901D2002300E0DB1E012606FA05F148
:101C8000491E214099409E40761E16403143F0BCCB
:101C900001F0EFBC0CED00E0064900F00702086817
:101CA0004FF6FF03184040EA0220034A1043086041
:101CB000704700000CED00E00000FA052DE9F04748
:101CC0000E46050063D0DFF81C81D8F80000F7B29B
:101CD00000F00F00B04207D288F80070D8F800007A
:101CE00000F00F00B04252D128683F4C810712D556
:101CF000400703D5206840F4E050206028780007B2
:101D000003D5206840F4604020602068A96820F076
:101D1000F000084320602878C0072BD0324968685B
:101D20000839012810D00968022810D08907002935
:101D30002DDA216821F0030101432160FFF71CFF28
:101D4000814641F2883A0EE009688903EFE789018C
:101D5000EDE700BFFFF710FFA0EB0901514502D9E5
:101D60000320BDE8F0872068696800F00C00B0EB44
:101D7000810FEFD1D8F80010404601F00F01B142B9
:101D800007D90770006800F00F00B04201D00120B1
:101D9000E7E72878400705D52068E96820F4E05097
:101DA000084320602878000706D52068296920F4B8
:101DB000604040EAC100206000F04EF82168F02247
:101DC00092FAA2F201F0F001B2FA82F2D140074A8F
:101DD000515CC8400649086006480068FFF7F4FEF9
:101DE0000020BEE7003C024008380240CC3A000820
:101DF0001400002004000020084809490068096810
:101E00004FF4E05292FAA2F201F4E051B2FA82F2F7
:101E1000D140044A515CC8407047000014000020C3
:101E200008380240DC3A0008084809490068096897
:101E30004FF4604292FAA2F201F46041B2FA82F2E7
:101E4000D140044A515CC840704700001400002093
:101E500008380240DC3A0008154810B5006810F058
:101E60000C02144813D04110042A0FD0082A0ED1B6
:101E70000F4C241F2268236802F03F025B0207D543
:101E80002068C0F38810A0FB010106E0084610BDE1
:101E90002168C1F38811A1FB00010023FEF7F8F9C6
:101EA0002168C1F30141491C4900B0FBF1F010BDAC
:101EB000083802400024F4002DE9F84F04007BD0DC
:101EC000DFF814B32078ABF10406C007A6F10405CF
:101ED00036D0DBF800105846C1F38101012907D044
:101EE0000068C0F38100022809D13068400206D59D
:101EF0002868800324D560680028E0D020E0B64937
:101F00002079891F0870606868B1FFF735FE0746C1
:101F100005E000BFFFF730FEC01B642876D82868B4
:101F20008003F7D50CE0FFF727FE074605E000BF6A
:101F3000FFF722FEC01B6428F0D828688003F7D47E
:101F40002078DFF8988280074FF0000944D5DBF84D
:101F50000010584611F00C0F4FF0F80A07D0006837
:101F6000C0F38100022809D13068400206D42868F5
:101F7000800715D5E06801281ED111E0E068E0B1C6
:101F80000120C8F80000FFF7F7FD074605E000BF95
:101F9000FFF7F2FDC01B0228C0D828688007F7D5DC
:101FA00028689AFAAAF22169B2FA82F220F0F800BF
:101FB0009140084328600FE00AE1C8F80090FFF75D
:101FC000DBFD074605E000BFFFF7D6FDC01B02287A
:101FD0001CD828688007F7D42078000727D5DFF8B9
:101FE000F8A17F4861690AF16C0A81B101210160A1
:101FF000FFF7C2FD074604E0FFF7BEFDC01B022845
:1020000004D8DAF800008007F6D510E082E0C0F8C6
:102010000090FFF7B1FD074605E000BFFFF7ACFDFC
:10202000C01B022876D8DAF800008007F6D42078A2
:1020300040075FD5DFF8A0A100270AF1380ADAF8D7
:102040000000C0000BD4DAF8001041F08051CAF84B
:102050000010DAF80000012700F08050009061487D
:10206000016841F4807101600168C90512D40168FA
:1020700041F480710160FFF77FFD009006E000BF32
:10208000FFF77AFD0099401A02287ED8554800686B
:10209000C005F5D55049207A68310870A06888B12C
:1020A000FFF76AFD009007E0FFF766FD0099411A0F
:1020B00041F28830814268D847486830006880071C
:1020C000F2D510E0FFF758FD009007E0FFF754FD50
:1020D0000099411A41F28830814256D83E48683012
:1020E00000688007F2D42FB1DAF8001021F0805197
:1020F000CAF80010A069B8B3DBF80010C1F3810181
:10210000022949D00228C8F8609004D0FFF734FDB6
:1021100004463DE039E0FFF72FFD074605E000BF2C
:10212000FFF72AFDC01B64282FD828688001F7D448
:10213000D4E907010843616A94F82C20890141EA37
:1021400002610843A16A284A490802EB0141084399
:102150003168264A1140084330600120C8F8600009
:10216000FFF70AFD044606E034E000BFFFF704FD78
:10217000001B642809D828688001F7D52AE000BF31
:10218000FFF7FAFC001B642802D90320BDE8F88F92
:1021900028688001F4D41DE00128F7D03068E26996
:1021A00000F48001914213D1226A00F03F01914274
:1021B0000ED1616AC0F38812914209D1A26A00F47B
:1021C0004031914204D1E16A00F07060884201D050
:1021D0000120DBE70020D9E7083802400000474231
:1021E000800E4742007000400000FFFF0080BCF0FE
:1021F0007047000038B5016804464A688868C043E3
:10220000430606D5C30704D1D3435B0601D4216C32
:1022100005E0830708D4D3431B0605D4616C01B0E5
:102220002046BDE830400847830603D5430601D564
:10223000C30551D4D3439B064ED443060AD494F825
:102240005130032B49D0636D43F004036365CB68C1
:102250008B680093830609D4636D43F001036365C3
:102260008B6800930B6823F040030B60C00506D415
:10227000606D40F008006065206880680090606DC7
:10228000002829D02068416821F0E0014160012048
:1022900084F85100900701D4D00722D0206841680B
:1022A00021F003014160114DE06C40B10565E06C27
:1022B000FFF72DFA18B1606D40F040006065A06C2A
:1022C000002809D00565A06CFFF721FA002803D08B
:1022D000606D40F04000606538BDC8688868009057
:1022E00038BD2046FFF784FF38BD000035300008B8
:1022F00070B5040009D0606A002540B125616561B0
:10230000A56294F8510040B10CE0012070BD6068F6
:10231000B0F5827FF4D0E561F2E784F850502046B2
:1023200000F044F8022084F851002068016821F090
:1023300040010160A088218900F4827001F4044109
:102340000843A18901F400610843217C01F00201E6
:102350000843217D01F001010843218B01F4007144
:102360000843217F01F03801084394F8201001F060
:1023700080010843218D01F4005108432168086061
:10238000A069042101EA104094F8241001F0100122
:102390000843216848602068C16921F40061C16177
:1023A0006565012084F85100002070BD10B586B02D
:1023B000044614216846FEF7FDF817492068884254
:1023C00028D116480021026842F480520260006859
:1023D00000F48050059011481438026842F0010260
:1023E0000260006800F001000590E02000900220EB
:1023F000CDE90101032003900520049069460848B7
:10240000FFF770FA002211462320FFF725FC232056
:10241000FFF714FC06B010BD003001404438024004
:10242000000002402DE9F84F044690F850000027C4
:102430000A9E1D4692468B464FF0010901280ED098
:10244000012084F85000FFF797FB804694F8510074
:10245000616801280CD0B1F5827F07D102E002202B
:10246000BDE8F88FA16809B9042801D00227C2E0AD
:10247000BBF1000F27D0BAF1000F24D01DB394F8A0
:102480005100042802D0052084F851000020606526
:10249000C4F838A0E587A587C4F830B0E586A586DE
:1024A0002064606420680168490603D4016841F033
:1024B00040010160E068B0F5006F606805D0E8B3E6
:1024C000012D46D07FE0012795E008B1012D39D1DB
:1024D000206B21680088C860206B801C2063E08E20
:1024E000401EE0862EE02068816889070FD5E18EC6
:1024F00069B1B9F1010F0AD1216B0988C160206B64
:10250000801C2063E08E401EE0864FF000092068AA
:102510008168C9070CD0E18F51B1C068A16B0880F8
:10252000A06B801CA063E08F401EE0874FF0010984
:10253000FFF722FBA0EB0800B04200E009E001D366
:10254000701C50D1E08E0028CDD1E08F0028CAD178
:102550003FE0206B216800780873206B401C2063EB
:10256000E08E401EE0862EE02068816889070FD546
:10257000E18E69B1B9F1010F0AD1216B09780173BC
:10258000206B401C2063E08E401EE0864FF0000967
:1025900020688168C9070CD0E18F51B1C068A16B78
:1025A0000870A06B401CA063E08F401EE0874FF0D6
:1025B0000109FFF7E1FAA0EB0800B04202D3701C5A
:1025C00001D010E07EB1E08E0028CDD1E08F002850
:1025D000CAD142463146204600F034FD28B10127D9
:1025E0002020606507E0032705E0A06818B920688F
:1025F000C16880680090012084F85100002084F8B0
:10260000500038462CE710B5401EB0F1807F01D352
:10261000012010BD4FF0E02460610F21601701F030
:1026200028F80020A06107202061002010BD70471D
:102630007047000070B590F83C20012A32D0012488
:1026400080F83C40022280F83D2003685A689D686B
:1026500022F070060A6832435A60134B02689A42AD
:1026600014D0B2F1804F11D0104B9A420ED0104BC3
:102670009A420BD00F4B9A4208D00F4B9A4205D08A
:102680000E4B9A4202D00E4B9A4204D1496825F073
:1026900080031943916080F83D40002180F83C1090
:1026A000084670BD022070BD0000014000040040DB
:1026B00000080040000C00400004014000400140C0
:1026C0000018004010B5040003D094F83D0010B18C
:1026D00007E0012010BD002084F83C00204600F0F7
:1026E0001FF8022084F83D00211D206800F096FDAF
:1026F000012084F8460084F83E0084F83F0084F806
:10270000400084F8410084F8420084F8430084F8D3
:10271000440084F8450084F83D00002010BD00000E
:1027200008B50068B0F1804F12D10A48016841F045
:10273000010101600068002200F001000090022108
:102740001C20FFF789FABDE808401C20FFF776BA85
:1027500008BD00004038024090F83D10012901D02A
:1027600001207047022180F83D100168CA6842F0DC
:102770000102CA6000681149884214D0B0F1804F4C
:1027800011D00F4988420ED00E4988420BD00E4915
:10279000884208D00D49884205D00D49884202D0B0
:1027A0000C49884204D1816801F00701062903D051
:1027B000016841F001010160002070470000014004
:1027C0000004004000080040000C004000040140EC
:1027D000004001400018004070B5044690F83C00ED
:1027E000012817D0012584F83C50022084F83D00D0
:1027F0002068826822F0770222F47F4282600868B3
:10280000502830D00DDC20284DD005DC98B310289E
:102810003BD148E0022070BD302844D0402834D15C
:1028200039E0602828D0702806D0B0F5805F2CD021
:10283000B0F5005F29D10AE0CB68D1E90121206819
:1028400000F050FD2068816841F0770109E0CB6815
:10285000D1E90121206800F045FD2068816841F43C
:102860008041816011E0CA684968206800F04CFD31
:102870005021206807E016E0CA684968206800F027
:1028800054FD6021206800F037FD84F83D500020A1
:1028900084F83C0070BDCA684968206800F034FDC7
:1028A00040212068EFE7226801461046EBE77047B9
:1028B00070B50446006801694FF00005C9438907F7
:1028C00015D4C168C943890711D4E91E01610120EB
:1028D0002077206880698007204602D0FFF7E7FF55
:1028E00004E000F098F8204600F096F8257720687C
:1028F0000169C943490717D4C168C943490713D4BB
:102900006FF004010161022020772068806910F4D3
:10291000407F204602D0FFF7CAFF04E000F07BF8BA
:10292000204600F079F8257720680169C943090736
:1029300016D4C168C943090712D46FF008010161B8
:10294000042020772068C0698007204602D0FFF766
:10295000AEFF04E000F05FF8204600F05DF8257758
:1029600020680169C943C90617D4C168C943C906AB
:1029700013D46FF010010161082020772068C0692E
:1029800010F4407F204602D0FFF791FF04E000F0F2
:1029900042F8204600F040F8257720680169C943D5
:1029A000C90708D1C168C943C90704D1891E01619B
:1029B000204600F032F820680169C943090609D4AD
:1029C000C168C943090605D46FF080010161204642
:1029D000FFF72DFE20680169C943490609D4C16883
:1029E000C943490605D46FF040010161204600F05B
:1029F00015F820680169C94389060BD4C168C94329
:102A0000890607D46FF0200101612046BDE87040BF
:102A1000FFF70EBE70BD7047704770477047704734
:102A200070B504460068C16821F4F071C160206887
:102A3000416921F001014161206B012804D1206826
:102A4000C16821F01001C160206841694FF0100693
:102A500009064FF000050FD5416921F08001416161
:102A6000606B48B10565606BFEF708FE20B1606BD6
:102A7000FEF75FFE20281ED02068416949060FD569
:102A8000416921F040014161A06B48B10565A06B2F
:102A9000FEF7F4FD20B1A06BFEF74BFE20280AD014
:102AA000E584E5852564202084F83E0084F83D0017
:102AB0002563002070BD2664032070BD704710F8A8
:102AC0003D1F407808437047F8B502680446106817
:102AD000D168536910F00F0F4FF0000553D003F089
:102AE000010601F4907737435FD0C20705D0CA05CD
:102AF00003D5226C42F001022264420705D5DA07B1
:102B000003D0226C42F002022264820705D5DA0764
:102B100003D0226C42F004022264020707D501F0C0
:102B20002002324303D0226C42F008022264226C5D
:102B3000002A34D0800604D5880602D5204600F04D
:102B400060FC20684069216CC0F38010090700D444
:102B500030B3204600F03DFC2068416949061BD592
:102B6000416921F040014161A06BA8B1594901655B
:102B7000A06BFEF7CCFD002811D0A06B016D01B059
:102B8000BDE8F040084783060FD58B060DD52046DB
:102B9000BDE8F84000F035BC2046FFF78FFFF8BDD8
:102BA0002046FFF78BFF2564F8BD266B2023012EFE
:102BB00053D1C60651D5CE064FD510685068009047
:102BC000506940062BD5A16B086840680004000CD2
:102BD000EAD0A68D8642E7D9E085C869B0F5807F46
:102BE00018D0D06820F48070D0602068416921F04E
:102BF000010141612068416921F04001416184F88F
:102C00003E3025632068C16821F01001C160A06BCF
:102C1000FEF734FDA08DE18D401A81B219E0A08D40
:102C2000E18D401A81B2E08D0028BDD00029BBD0D3
:102C3000D06820F49070D0602068426922F00102D0
:102C4000426184F83E3025632068C26822F0100299
:102C5000C2602046FFF7E3FEF8BD05062BD50D0642
:102C600029D594F83D002128F6D1A068B0F5805F01
:102C700001D12069B0B1206A411C2162216800782D
:102C80004860E08C401E0004000CE084E4D1206821
:102C9000C16821F08001C1602068C16841F0400135
:102CA000C160F8BD206A0088C0F308005060206A47
:102CB000801C2062E5E74006F3D54806F1D5D168CF
:102CC000204621F04001D16084F83D3000F0CFF87B
:102CD000F8BD0000C333000870B5040004D094F8B8
:102CE0003D00002510B106E0012070BD84F83C5085
:102CF000204600F023F8242084F83D002068C168B5
:102D000021F40051C160204600F0D6FB2068016923
:102D100021F4904101612068416921F02A0141615B
:102D20002068C16841F40051C1602564202084F806
:102D30003D0084F83E00002070BD000010B586B054
:102D4000044614216846FDF735FC1849206888427E
:102D500029D11748016841F010010160006800F0B6
:102D60001000059012481438016841F0010101601B
:102D70000068694600F0010005904FF4C0600090C3
:102D8000022001900120029003200390072004906C
:102D90000848FEF7A7FD002201212520FEF75CFF71
:102DA0002520FEF74BFF06B010BD000000100140CB
:102DB0004438024000000240704700002DE9F8430B
:102DC000044690F83D001F4616460D4620284CD17B
:102DD000C5B1BEB194F83C00012846D0012084F86A
:102DE0003C004FF00008C4F84080212084F83D00EA
:102DF000FEF7C2FEA6848146E684A068B0F5805F37
:102E000003D004E00120BDE8F883206928B12E46F4
:102E10005FF0000584F83C800EE00026FAE7802190
:102E2000204600F0DBFBA0B9AEB116F8010B21681B
:102E30004860E08C401EE084E08C4B464FF000027E
:102E400000970028EBD14FF04001204600F0C6FB70
:102E500030B10320D7E735F8020BC0F30800E6E7EE
:102E6000202084F83D000020CDE70220CBE770470A
:102E7000FEE700002DE9F04186B014216846FDF719
:102E800099FB2C480025016841F0040101600168AC
:102E900001F004010591016841F0800101600168C1
:102EA00001F080010591016841F0010101600168B4
:102EB00001F001010591016841F002010160006823
:102EC000DFF8748000F002000590002220214046C7
:102ED000FEF74CFE194F012203213846FEF746FE4D
:102EE0000122160231464046FEF740FE0124202012
:102EF000CDE9000469464046CDE90245FEF7F2FC03
:102F00000320CDE9000469463846CDE90245FEF7C5
:102F1000E9FCCDE9006469464046CDE90245FEF78B
:102F2000E1FC012220214046FEF720FE06B0BDE86C
:102F3000F0810000303802400008024000040240E6
:102F40000E4810B50C4901604FF4827141600021B8
:102F50008160C1604FF400720161C0E90512102266
:102F6000C0E90721416281620A21C162FFF7C0F90D
:102F7000002800D0FEE710BD0030014038100020CE
:102F800010B586B00024154800940194029403946F
:102F900004944FF080410594016048F6A041C0E9D7
:102FA000011440F2CF71C0E903148461FFF78AFB7A
:102FB00000B1FEE74FF48050009069460748FFF7E4
:102FC0000BFC00B1FEE7049404A904480594FFF744
:102FD00031FB002800D0FEE706B010BD90100020A5
:102FE000FEE7FEE7704701884288914201D1002048
:102FF00070474A1C031D92B20280C95C40F2DC5348
:103000009A4201D3002202800846704710B54288D8
:10301000041D531C43801155418840F2DC529142FB
:1030200001D30021418010BD0148FFF7E3B8000043
:103030003810002010B5806B0021C187C186FFF7D2
:10304000D7F810BD38B50B46009204460022802107
:1030500000F034F8002804D0606D40F02000606576
:10306000032038BD71B5144E4FF47A7583B02C46E9
:10307000306801E0641EA4B28168C943890702D5A3
:10308000002CF7D10AE04CB164200090012301AA82
:1030900003A90948FFF7C6F9306804E0002004B02E
:1030A00070BD6D1EADB28168C943C90701D0002D46
:1030B000F7D19DF80400F2E7381000202DE9F8431D
:1030C0001E46914688460446089DFEF755FD401B66
:1030D000351AFEF751FD074625480068C0F3CB308E
:1030E000684338E0701C37D0FEF746FDC01BA8428D
:1030F00003D215B1009860B32CE02068416821F03C
:10310000E00141606068B0F5827F0BD1A068B0F546
:10311000004F02D0B0F5806F04D12068016821F023
:1031200040010160A06AB0F5005F09D12068016824
:1031300021F4005101602068016841F400510160F0
:10314000012084F85100002084F850000320BDE8DD
:10315000F8830025401E00902068816838EA01004D
:1031600004D000214945BDD10020F0E70121F9E755
:10317000140000207047000010B5FEF703FD0F4C4F
:10318000B4F82C0A28B1401E0004000CA4F82C0A44
:103190000DD094F82E0A012808D100BFFDF7D4FF06
:1031A0000749002084F82E0AA1F8E00510BD01208F
:1031B00084F82E0A84F82F0AF0E7000006060020A3
:1031C0002400002030B591B030216846FDF7F2F9B7
:1031D00014210CA8FDF7EEF90124002506950094B2
:1031E00068460194FEF768FE00B1FEE70F20CDE9C6
:1031F0000C048020CDE90E054001109000210CA8A0
:10320000FEF75CFD002800D0FEE711B030BD70472E
:103210000148FFF74DBB000090100020F0B5026898
:10322000254C264D264E274F274B4FF0804CA04271
:1032300009D0604507D0A84205D0B04203D0B842BB
:1032400001D0984204D122F0700E4A6842EA0E0280
:10325000A0421BD0604519D0A84217D0B04215D06B
:10326000B84213D0984211D0184DA8420ED0184D34
:10327000A8420BD0174DA84208D0174DA84205D040
:10328000164DA84202D0164DA84203D122F4407533
:10329000CA682A434D6922F080022A4302608A6884
:1032A000C2620A688262A04201D0984201D10969D3
:1032B000016301214161F0BD0000014000040040B4
:1032C00000080040000C00400004014000400140A4
:1032D000004401400048014000180040001C00402C
:1032E0000020004010B5846842EA032224F47F44A1
:1032F0000A432243826010BD826822F070020A43B2
:1033000042F007018160704710B5036A046A24F037
:1033100001040462846924F0F00444EA021423F0F6
:103320000A020A438461026210BD10B5036A23F0E9
:10333000100303628369046A23F4704343EA023290
:1033400024F0A00343EA01118261016210BD2DE95E
:10335000F0410E46054601461F46104600F01DF896
:1033600004462946384600F018F80022611C04D0B3
:10337000411C02D0011B012902DC0020BDE8F081C4
:10338000641C21B205E06B5CB354521C491C12B2A0
:1033900009B28142F7DB0120F0E770B50D46064621
:1033A000002406E0285DB04201D1204670BD641CB7
:1033B000E4B22846FDF7BDF8A042F3D84FF0FF3045
:1033C00070BD10B5806B0021C185C184FFF776FB0D
:1033D00010BD0168CA6822F49072CA6001684A6927
:1033E00022F001024A61016B012904D10168CA6817
:1033F00022F01002CA60202180F83E1000210163F3
:10340000704708B590F83E10222901D0022008BD6F
:1034100082684FF480539A4201D1016921B1816AD7
:103420009A421BD04AB10AE00268816A5268C2F32C
:1034300008020A80816A891C08E0026972B1026888
:10344000526802F07F020A70816A491C8162C18D54
:10345000491E0904090CC18503D019E002685268AD
:10346000F1E70168CA6822F02002CA600168CA68F0
:1034700022F48072CA6001684A6922F001024A613E
:10348000202180F83E10016B012903D0FFF794FC46
:10349000002008BD002101630168CA6822F0100203
:1034A000CA6001680A68D20602D50A6849680091B4
:1034B000818DFFF7B4FAEBE72DE9F041044600688F
:1034C0000169E26821F44051114301612169A0685A
:1034D000E26908436169114322680843D16849F2EF
:1034E0000C6399430143D16020684169A26921F4CA
:1034F00040711143416137492068884202D0364902
:10350000884202D1FEF790FC01E0FEF775FC02460E
:10351000E36964203221B3F5004F02EBC20303EBF1
:10352000021362682BD09200B3FBF2F5B5FBF0F505
:10353000B3FBF2F66FF018077D4306EB8505B3FB8E
:10354000F2F601EB0515B5FBF0F5B6FBF0F605F06C
:10355000F00505EB0615B3FBF2F6B3FBF2F2B2FB96
:10356000F0F27A4306EB820201EB0211B1FBF0F0BC
:1035700000F00F00216828448860BDE8F081520007
:10358000B3FBF2F6B6FBF0F6B3FBF2F7B3FBF2F5E2
:103590006FF0180C06FB0CF607EB860601EBC6066F
:1035A000B5FBF0F5B6FBF0F62D0106F0F80605EBDD
:1035B0004605B3FBF2F6B3FBF2F2B2FBF0F202FB0C
:1035C0000CF206EB820201EBC201B1FBF0F000F05D
:1035D0000700CFE700100140001401402DE9F04141
:1035E000984617460E460446069D1DE0681C1BD0F3
:1035F0002DB1FEF7C1FAA0EB0800A84214D920684B
:10360000C16821F4D071C1602068416921F00101D5
:103610004161202084F83D0084F83E00002084F8B9
:103620003C000320BDE8F0812068006836EA000015
:1036300004D00020B842D9D00020F3E70120F9E7F8
:10364000074810B54068C1B20648FFF7DFFC0649DD
:103650003220A1F82C0ABDE810400448FFF734BA24
:10366000001001402400002006060020D810002091
:10367000FEE70907090E002804DB00F1E02080F8CE
:103680000014704700F00F0000F1E02080F8141DD6
:10369000704730B587B00546FEF70EF9002005905B
:1036A0000090022004900120CDE901050390FF2441
:1036B00005A96846FEF76CF800B90024FEF7B4F8D7
:1036C0001420FEF753F807B0204630BD70B5054C06
:1036D0006568FEF731F8206880F30888AC46BDE8DD
:1036E00070406047008000082DE9F0471746894682
:1036F00006460024FEF7E0F80025DFF8488017E0D2
:10370000464502D344F0010411E059F82520002376
:1037100031460220FEF792F808B144F0020459F84D
:1037200025003168884201D044F00404361D6D1C28
:10373000BD4201D2002CE3D0FEF776F82046BDE86A
:10374000F0870000EFFF010813B54FF0FF330122AF
:1037500069460248FFF732FB00981CBDD8100020D4
:10376000FEF718FAFFF72EFDFFF784FBFFF7E8FBE3
:103770001E481D4D4FF4E13100240560C0E90114DD
:103780000C21C460C0E904418461C461FFF7A4FA5C
:1037900000B1FEE7E86840F02000E860FFF7F0FBCA
:1037A00012484838FEF7D8FF002202211048FEF7E1
:1037B000DDF9FDF756FD0FA000F05EF800F0F8F817
:1037C000114D124E40F2145795F82F0A0128FBD1E3
:1037D00085F82F4AFDF7D0FCA6F8E0453946A81C2D
:1037E000FCF7C6FEF0E7000000100140D8100020F2
:1037F00000040240457261736520436F6D706C6513
:103800007465200D09000000060600202400002039
:10381000C9B201E000F8011B521EFBD27047000044
:1038200030B5034600200246064C03E0A518AD78EB
:103830009D54521C8A42F9DB1978002900D1FF20DF
:1038400030BD00000606002031B5FF240948FFF70F
:1038500036F9A02802D10748FFF7E2F84FF4FA63DF
:10386000012269460348FFF7A9FA00B9002420465F
:1038700038BD0000D810002010B5FF24002201E060
:10388000521C92B2815C0029FAD101464FF4FA63CE
:103890000348FFF793FA00B90024204610BD00004A
:1038A000D810002010B502780024521CD2B2027049
:1038B0008A4207D31820FFF7C7FF1820FFF7C4FF7D
:1038C000FF2402E01520FFF7BFFF204610BD0000D7
:1038D0002DE9F05F3349344B00248878987008460E
:1038E0004FF48065C078D8704FF0010B032022465A
:1038F0000E189F18401CB678521C3E7180B2AA4226
:10390000F6DB0A18401C967880B208441E70807856
:10391000587018881A1D46BA9946AA4628460021AA
:1039200041F221074FF6FF7C12F8013B401E81EA6D
:10393000032180B25FF000035FEA014803D587EA04
:10394000410189B201E00CEA41015B1CDBB2082BAA
:10395000F2D30028E8D1B14201D044F00104134E63
:103960003078204305D10220FFF793FE18B144F0D0
:1039700008041CB112E086F800B0FAE74F46524640
:10398000381D7168FDF714FE0A20FDF7EFFE514661
:10399000381DFCF7EDFD7068284470602046BDE8D6
:1039A000F09F0000060600203C1100200C000020C3
:1039B000FEB500258DF80050314F324C3D708DF82A
:1039C000045084F82A5A56E08DF80850012102A8C4
:1039D000FFF726FF060012D0387810B1012808D072
:1039E0000DE04FF47A70FDF7C1FE4320FFF72CFF86
:1039F00005E0032101A8FFF755FF8DF800009DF8B1
:103A00000800012807D0022805D004281FD0182854
:103A100029D086BB29E0FFF75BFF10B1082807D04B
:103A200009E00620FFF710FF9620FDF79FFE08E053
:103A300003208DF80400032101A8FFF733FF8DF860
:103A4000000094F82A0A401C84F82A0A13E0062091
:103A5000FFF7FAFE40F21451A01CFCF789FD0AA002
:103A6000FFF70AFFFEBDFF2003E0032101A8FFF7D7
:103A700019FF8DF800009DF800000028A4D0FEBDBD
:103A80000C000020060600200A0D4669726D776161
:103A900072652075706461746564210A0D00000010
:103AA00010B500290AD00878002807D005487844C6
:103AB000FDF772FA002801D0002010BD02487844BA
:103AC00010BD0000620000005A000000000000006D
:103AD00000000000010203040607080900000000BE
:103AE000010203043A7474003A7474003A74740066
:103AF000203C00080000002024000000C001000855
:103B0000443C0008240000207C1C0000DC0100086C
:103B10001001000043000000F8FFFFFF004040409C
:103B20004040404040404141414141404040404090
:103B3000404040404040404040404040400502023C
:103B400002020202020202020202020202202020FB
:103B50002020202020202002020202020202909057
:103B60009090909010101010101010101010101055
:103B700010101010101010100202020202028888A9
:103B800088888888080808080808080808080808B5
:103B9000080808080808080802020202400000009D
:103BA0000000000000000000000000000000000015
:103BB0000000000000000000000000000000000005
:103BC00000000000000000000000000000000000F5
:103BD00000000000000000000000000000000000E5
:103BE00000000000000000000000000000000000D5
:103BF00000000000000000000000000000000000C5
:103C000000000000000000000000000000000000B4
:103C100000000000000000000000000000000000A4
:103C20000100000010000000000000000000000083
:103C3000008000000024F4000000000000000000EC
:043C40000000000080
:040000050800018569
:00000001FF
